{
	"src/contracts/TodoList.sol": {
		"TodoList": {
			"abi": [
				{
					"anonymous": false,
					"inputs": [],
					"name": "TodoAdded",
					"type": "event"
				},
				{
					"anonymous": false,
					"inputs": [],
					"name": "TodoDeleted",
					"type": "event"
				},
				{
					"anonymous": false,
					"inputs": [],
					"name": "TodoUpdated",
					"type": "event"
				},
				{
					"inputs": [
						{
							"internalType": "string",
							"name": "text",
							"type": "string"
						},
						{
							"internalType": "bool",
							"name": "done",
							"type": "bool"
						}
					],
					"name": "addTodo",
					"outputs": [],
					"stateMutability": "nonpayable",
					"type": "function"
				},
				{
					"inputs": [
						{
							"internalType": "uint256",
							"name": "id",
							"type": "uint256"
						}
					],
					"name": "deleteTodo",
					"outputs": [],
					"stateMutability": "nonpayable",
					"type": "function"
				},
				{
					"inputs": [],
					"name": "getTodos",
					"outputs": [
						{
							"components": [
								{
									"internalType": "uint256",
									"name": "id",
									"type": "uint256"
								},
								{
									"internalType": "string",
									"name": "text",
									"type": "string"
								},
								{
									"internalType": "bool",
									"name": "done",
									"type": "bool"
								},
								{
									"internalType": "bool",
									"name": "deleted",
									"type": "bool"
								}
							],
							"internalType": "struct Todo[]",
							"name": "",
							"type": "tuple[]"
						}
					],
					"stateMutability": "view",
					"type": "function"
				},
				{
					"inputs": [
						{
							"internalType": "uint256",
							"name": "id",
							"type": "uint256"
						},
						{
							"internalType": "bool",
							"name": "done",
							"type": "bool"
						}
					],
					"name": "updateTodo",
					"outputs": [],
					"stateMutability": "nonpayable",
					"type": "function"
				}
			],
			"devdoc": {
				"kind": "dev",
				"methods": {},
				"version": 1
			},
			"evm": {
				"assembly": "    /* \"src/contracts/TodoList.sol\":115:1682  contract TodoList {... */\n  mstore(0x40, 0x80)\n  callvalue\n  dup1\n  iszero\n  tag_1\n  jumpi\n  0x00\n  dup1\n  revert\ntag_1:\n  pop\n  dataSize(sub_0)\n  dup1\n  dataOffset(sub_0)\n  0x00\n  codecopy\n  0x00\n  return\nstop\n\nsub_0: assembly {\n        /* \"src/contracts/TodoList.sol\":115:1682  contract TodoList {... */\n      mstore(0x40, 0x80)\n      callvalue\n      dup1\n      iszero\n      tag_1\n      jumpi\n      0x00\n      dup1\n      revert\n    tag_1:\n      pop\n      jumpi(tag_2, lt(calldatasize, 0x04))\n      shr(0xe0, calldataload(0x00))\n      dup1\n      0x1f22e5f9\n      eq\n      tag_3\n      jumpi\n      dup1\n      0x6e3c6738\n      eq\n      tag_4\n      jumpi\n      dup1\n      0xa0cc2a56\n      eq\n      tag_5\n      jumpi\n      dup1\n      0xc33926cb\n      eq\n      tag_6\n      jumpi\n    tag_2:\n      0x00\n      dup1\n      revert\n        /* \"src/contracts/TodoList.sol\":1089:1384  function updateTodo(uint id, bool done) public {... */\n    tag_3:\n      tag_7\n      0x04\n      dup1\n      calldatasize\n      sub\n      dup2\n      add\n      swap1\n      tag_8\n      swap2\n      swap1\n      tag_9\n      jump\t// in\n    tag_8:\n      tag_10\n      jump\t// in\n    tag_7:\n      stop\n        /* \"src/contracts/TodoList.sol\":1392:1679  function deleteTodo(uint id) public {... */\n    tag_4:\n      tag_11\n      0x04\n      dup1\n      calldatasize\n      sub\n      dup2\n      add\n      swap1\n      tag_12\n      swap2\n      swap1\n      tag_13\n      jump\t// in\n    tag_12:\n      tag_14\n      jump\t// in\n    tag_11:\n      stop\n        /* \"src/contracts/TodoList.sol\":874:1081  function addTodo(string memory text, bool done) public {... */\n    tag_5:\n      tag_15\n      0x04\n      dup1\n      calldatasize\n      sub\n      dup2\n      add\n      swap1\n      tag_16\n      swap2\n      swap1\n      tag_17\n      jump\t// in\n    tag_16:\n      tag_18\n      jump\t// in\n    tag_15:\n      stop\n        /* \"src/contracts/TodoList.sol\":251:866  function getTodos() public view returns (Todo[] memory) {... */\n    tag_6:\n      tag_19\n      tag_20\n      jump\t// in\n    tag_19:\n      mload(0x40)\n      tag_21\n      swap2\n      swap1\n      tag_22\n      jump\t// in\n    tag_21:\n      mload(0x40)\n      dup1\n      swap2\n      sub\n      swap1\n      return\n        /* \"src/contracts/TodoList.sol\":1089:1384  function updateTodo(uint id, bool done) public {... */\n    tag_10:\n        /* \"src/contracts/TodoList.sol\":1147:1155  uint max */\n      0x00\n        /* \"src/contracts/TodoList.sol\":1158:1163  todos */\n      dup1\n        /* \"src/contracts/TodoList.sol\":1158:1170  todos.length */\n      dup1\n      sload\n      swap1\n      pop\n        /* \"src/contracts/TodoList.sol\":1147:1170  uint max = todos.length */\n      swap1\n      pop\n        /* \"src/contracts/TodoList.sol\":1186:1192  uint i */\n      0x00\n        /* \"src/contracts/TodoList.sol\":1181:1377  for (uint i = 0; i < max; i++) {... */\n    tag_24:\n        /* \"src/contracts/TodoList.sol\":1202:1205  max */\n      dup2\n        /* \"src/contracts/TodoList.sol\":1198:1199  i */\n      dup2\n        /* \"src/contracts/TodoList.sol\":1198:1205  i < max */\n      lt\n        /* \"src/contracts/TodoList.sol\":1181:1377  for (uint i = 0; i < max; i++) {... */\n      iszero\n      tag_25\n      jumpi\n        /* \"src/contracts/TodoList.sol\":1246:1248  id */\n      dup4\n        /* \"src/contracts/TodoList.sol\":1231:1236  todos */\n      0x00\n        /* \"src/contracts/TodoList.sol\":1237:1238  i */\n      dup3\n        /* \"src/contracts/TodoList.sol\":1231:1239  todos[i] */\n      dup2\n      sload\n      dup2\n      lt\n      tag_27\n      jumpi\n      tag_28\n      tag_29\n      jump\t// in\n    tag_28:\n    tag_27:\n      swap1\n      0x00\n      mstore\n      keccak256(0x00, 0x20)\n      swap1\n      0x03\n      mul\n      add\n        /* \"src/contracts/TodoList.sol\":1231:1242  todos[i].id */\n      0x00\n      add\n      sload\n        /* \"src/contracts/TodoList.sol\":1231:1248  todos[i].id == id */\n      sub\n        /* \"src/contracts/TodoList.sol\":1227:1366  if (todos[i].id == id) {... */\n      tag_31\n      jumpi\n        /* \"src/contracts/TodoList.sol\":1285:1289  done */\n      dup3\n        /* \"src/contracts/TodoList.sol\":1269:1274  todos */\n      0x00\n        /* \"src/contracts/TodoList.sol\":1275:1276  i */\n      dup3\n        /* \"src/contracts/TodoList.sol\":1269:1277  todos[i] */\n      dup2\n      sload\n      dup2\n      lt\n      tag_32\n      jumpi\n      tag_33\n      tag_29\n      jump\t// in\n    tag_33:\n    tag_32:\n      swap1\n      0x00\n      mstore\n      keccak256(0x00, 0x20)\n      swap1\n      0x03\n      mul\n      add\n        /* \"src/contracts/TodoList.sol\":1269:1282  todos[i].done */\n      0x02\n      add\n      0x00\n        /* \"src/contracts/TodoList.sol\":1269:1289  todos[i].done = done */\n      0x0100\n      exp\n      dup2\n      sload\n      dup2\n      0xff\n      mul\n      not\n      and\n      swap1\n      dup4\n      iszero\n      iszero\n      mul\n      or\n      swap1\n      sstore\n      pop\n        /* \"src/contracts/TodoList.sol\":1313:1326  TodoUpdated() */\n      0xa5d3043a98c72ee40daa2f322bf6b4a03870dacfd742e05b8e906f606a1993f4\n      mload(0x40)\n      mload(0x40)\n      dup1\n      swap2\n      sub\n      swap1\n      log1\n        /* \"src/contracts/TodoList.sol\":1345:1350  break */\n      jump(tag_25)\n        /* \"src/contracts/TodoList.sol\":1227:1366  if (todos[i].id == id) {... */\n    tag_31:\n        /* \"src/contracts/TodoList.sol\":1207:1210  i++ */\n      dup1\n      dup1\n      tag_35\n      swap1\n      tag_36\n      jump\t// in\n    tag_35:\n      swap2\n      pop\n      pop\n        /* \"src/contracts/TodoList.sol\":1181:1377  for (uint i = 0; i < max; i++) {... */\n      jump(tag_24)\n    tag_25:\n      pop\n        /* \"src/contracts/TodoList.sol\":1136:1384  {... */\n      pop\n        /* \"src/contracts/TodoList.sol\":1089:1384  function updateTodo(uint id, bool done) public {... */\n      pop\n      pop\n      jump\t// out\n        /* \"src/contracts/TodoList.sol\":1392:1679  function deleteTodo(uint id) public {... */\n    tag_14:\n        /* \"src/contracts/TodoList.sol\":1439:1447  uint max */\n      0x00\n        /* \"src/contracts/TodoList.sol\":1450:1455  todos */\n      dup1\n        /* \"src/contracts/TodoList.sol\":1450:1462  todos.length */\n      dup1\n      sload\n      swap1\n      pop\n        /* \"src/contracts/TodoList.sol\":1439:1462  uint max = todos.length */\n      swap1\n      pop\n        /* \"src/contracts/TodoList.sol\":1478:1484  uint i */\n      0x00\n        /* \"src/contracts/TodoList.sol\":1473:1672  for (uint i = 0; i < max; i++) {... */\n    tag_38:\n        /* \"src/contracts/TodoList.sol\":1494:1497  max */\n      dup2\n        /* \"src/contracts/TodoList.sol\":1490:1491  i */\n      dup2\n        /* \"src/contracts/TodoList.sol\":1490:1497  i < max */\n      lt\n        /* \"src/contracts/TodoList.sol\":1473:1672  for (uint i = 0; i < max; i++) {... */\n      iszero\n      tag_39\n      jumpi\n        /* \"src/contracts/TodoList.sol\":1538:1540  id */\n      dup3\n        /* \"src/contracts/TodoList.sol\":1523:1528  todos */\n      0x00\n        /* \"src/contracts/TodoList.sol\":1529:1530  i */\n      dup3\n        /* \"src/contracts/TodoList.sol\":1523:1531  todos[i] */\n      dup2\n      sload\n      dup2\n      lt\n      tag_41\n      jumpi\n      tag_42\n      tag_29\n      jump\t// in\n    tag_42:\n    tag_41:\n      swap1\n      0x00\n      mstore\n      keccak256(0x00, 0x20)\n      swap1\n      0x03\n      mul\n      add\n        /* \"src/contracts/TodoList.sol\":1523:1534  todos[i].id */\n      0x00\n      add\n      sload\n        /* \"src/contracts/TodoList.sol\":1523:1540  todos[i].id == id */\n      sub\n        /* \"src/contracts/TodoList.sol\":1519:1661  if (todos[i].id == id) {... */\n      tag_44\n      jumpi\n        /* \"src/contracts/TodoList.sol\":1580:1584  true */\n      0x01\n        /* \"src/contracts/TodoList.sol\":1561:1566  todos */\n      0x00\n        /* \"src/contracts/TodoList.sol\":1567:1568  i */\n      dup3\n        /* \"src/contracts/TodoList.sol\":1561:1569  todos[i] */\n      dup2\n      sload\n      dup2\n      lt\n      tag_45\n      jumpi\n      tag_46\n      tag_29\n      jump\t// in\n    tag_46:\n    tag_45:\n      swap1\n      0x00\n      mstore\n      keccak256(0x00, 0x20)\n      swap1\n      0x03\n      mul\n      add\n        /* \"src/contracts/TodoList.sol\":1561:1577  todos[i].deleted */\n      0x02\n      add\n      0x01\n        /* \"src/contracts/TodoList.sol\":1561:1584  todos[i].deleted = true */\n      0x0100\n      exp\n      dup2\n      sload\n      dup2\n      0xff\n      mul\n      not\n      and\n      swap1\n      dup4\n      iszero\n      iszero\n      mul\n      or\n      swap1\n      sstore\n      pop\n        /* \"src/contracts/TodoList.sol\":1608:1621  TodoDeleted() */\n      0x9218efb8b01b35364f271f424251d4ac0ee6008fc366226e9c2338bd15ebf616\n      mload(0x40)\n      mload(0x40)\n      dup1\n      swap2\n      sub\n      swap1\n      log1\n        /* \"src/contracts/TodoList.sol\":1640:1645  break */\n      jump(tag_39)\n        /* \"src/contracts/TodoList.sol\":1519:1661  if (todos[i].id == id) {... */\n    tag_44:\n        /* \"src/contracts/TodoList.sol\":1499:1502  i++ */\n      dup1\n      dup1\n      tag_48\n      swap1\n      tag_36\n      jump\t// in\n    tag_48:\n      swap2\n      pop\n      pop\n        /* \"src/contracts/TodoList.sol\":1473:1672  for (uint i = 0; i < max; i++) {... */\n      jump(tag_38)\n    tag_39:\n      pop\n        /* \"src/contracts/TodoList.sol\":1428:1679  {... */\n      pop\n        /* \"src/contracts/TodoList.sol\":1392:1679  function deleteTodo(uint id) public {... */\n      pop\n      jump\t// out\n        /* \"src/contracts/TodoList.sol\":874:1081  function addTodo(string memory text, bool done) public {... */\n    tag_18:\n        /* \"src/contracts/TodoList.sol\":940:947  uint id */\n      0x00\n        /* \"src/contracts/TodoList.sol\":950:955  todos */\n      dup1\n        /* \"src/contracts/TodoList.sol\":950:962  todos.length */\n      dup1\n      sload\n      swap1\n      pop\n        /* \"src/contracts/TodoList.sol\":940:962  uint id = todos.length */\n      swap1\n      pop\n        /* \"src/contracts/TodoList.sol\":973:989  Todo memory todo */\n      0x00\n        /* \"src/contracts/TodoList.sol\":992:1019  Todo(id, text, done, false) */\n      mload(0x40)\n      dup1\n      0x80\n      add\n      0x40\n      mstore\n      dup1\n        /* \"src/contracts/TodoList.sol\":997:999  id */\n      dup4\n        /* \"src/contracts/TodoList.sol\":992:1019  Todo(id, text, done, false) */\n      dup2\n      mstore\n      0x20\n      add\n        /* \"src/contracts/TodoList.sol\":1001:1005  text */\n      dup6\n        /* \"src/contracts/TodoList.sol\":992:1019  Todo(id, text, done, false) */\n      dup2\n      mstore\n      0x20\n      add\n        /* \"src/contracts/TodoList.sol\":1007:1011  done */\n      dup5\n        /* \"src/contracts/TodoList.sol\":992:1019  Todo(id, text, done, false) */\n      iszero\n      iszero\n      dup2\n      mstore\n      0x20\n      add\n        /* \"src/contracts/TodoList.sol\":1013:1018  false */\n      0x00\n        /* \"src/contracts/TodoList.sol\":992:1019  Todo(id, text, done, false) */\n      iszero\n      iszero\n      dup2\n      mstore\n      pop\n        /* \"src/contracts/TodoList.sol\":973:1019  Todo memory todo = Todo(id, text, done, false) */\n      swap1\n      pop\n        /* \"src/contracts/TodoList.sol\":1030:1035  todos */\n      0x00\n        /* \"src/contracts/TodoList.sol\":1041:1045  todo */\n      dup2\n        /* \"src/contracts/TodoList.sol\":1030:1046  todos.push(todo) */\n      swap1\n      dup1\n      0x01\n      dup2\n      sload\n      add\n      dup1\n      dup3\n      sstore\n      dup1\n      swap2\n      pop\n      pop\n      0x01\n      swap1\n      sub\n      swap1\n      0x00\n      mstore\n      keccak256(0x00, 0x20)\n      swap1\n      0x03\n      mul\n      add\n      0x00\n      swap1\n      swap2\n      swap1\n      swap2\n      swap1\n      swap2\n      pop\n      0x00\n      dup3\n      add\n      mload\n      dup2\n      0x00\n      add\n      sstore\n      0x20\n      dup3\n      add\n      mload\n      dup2\n      0x01\n      add\n      swap1\n      dup2\n      tag_51\n      swap2\n      swap1\n      tag_52\n      jump\t// in\n    tag_51:\n      pop\n      0x40\n      dup3\n      add\n      mload\n      dup2\n      0x02\n      add\n      exp(0x0100, 0x00)\n      dup2\n      sload\n      dup2\n      0xff\n      mul\n      not\n      and\n      swap1\n      dup4\n      iszero\n      iszero\n      mul\n      or\n      swap1\n      sstore\n      pop\n      0x60\n      dup3\n      add\n      mload\n      dup2\n      0x02\n      add\n      exp(0x0100, 0x01)\n      dup2\n      sload\n      dup2\n      0xff\n      mul\n      not\n      and\n      swap1\n      dup4\n      iszero\n      iszero\n      mul\n      or\n      swap1\n      sstore\n      pop\n      pop\n      pop\n        /* \"src/contracts/TodoList.sol\":1062:1073  TodoAdded() */\n      0x3f6c5d91b4e4ceb6d3b01b9cd23a15af4bef70334b78e706c2543ea8daaf3c13\n      mload(0x40)\n      mload(0x40)\n      dup1\n      swap2\n      sub\n      swap1\n      log1\n        /* \"src/contracts/TodoList.sol\":929:1081  {... */\n      pop\n      pop\n        /* \"src/contracts/TodoList.sol\":874:1081  function addTodo(string memory text, bool done) public {... */\n      pop\n      pop\n      jump\t// out\n        /* \"src/contracts/TodoList.sol\":251:866  function getTodos() public view returns (Todo[] memory) {... */\n    tag_20:\n        /* \"src/contracts/TodoList.sol\":292:305  Todo[] memory */\n      0x60\n        /* \"src/contracts/TodoList.sol\":318:327  uint size */\n      0x00\n        /* \"src/contracts/TodoList.sol\":330:335  todos */\n      dup1\n        /* \"src/contracts/TodoList.sol\":330:342  todos.length */\n      dup1\n      sload\n      swap1\n      pop\n        /* \"src/contracts/TodoList.sol\":318:342  uint size = todos.length */\n      swap1\n      pop\n        /* \"src/contracts/TodoList.sol\":353:371  Todo[] memory copy */\n      0x00\n        /* \"src/contracts/TodoList.sol\":385:389  size */\n      dup2\n        /* \"src/contracts/TodoList.sol\":374:390  new Todo[](size) */\n      0xffffffffffffffff\n      dup2\n      gt\n      iszero\n      tag_54\n      jumpi\n      tag_55\n      tag_56\n      jump\t// in\n    tag_55:\n    tag_54:\n      mload(0x40)\n      swap1\n      dup1\n      dup3\n      mstore\n      dup1\n      0x20\n      mul\n      0x20\n      add\n      dup3\n      add\n      0x40\n      mstore\n      dup1\n      iszero\n      tag_57\n      jumpi\n      dup2\n      0x20\n      add\n    tag_58:\n      tag_59\n      tag_60\n      jump\t// in\n    tag_59:\n      dup2\n      mstore\n      0x20\n      add\n      swap1\n      0x01\n      swap1\n      sub\n      swap1\n      dup2\n      tag_58\n      jumpi\n      swap1\n      pop\n    tag_57:\n      pop\n        /* \"src/contracts/TodoList.sol\":353:390  Todo[] memory copy = new Todo[](size) */\n      swap1\n      pop\n        /* \"src/contracts/TodoList.sol\":403:420  uint currentIndex */\n      0x00\n        /* \"src/contracts/TodoList.sol\":440:446  uint i */\n      dup1\n        /* \"src/contracts/TodoList.sol\":435:623  for (uint i = 0; i < size; i++) ... */\n    tag_61:\n        /* \"src/contracts/TodoList.sol\":456:460  size */\n      dup4\n        /* \"src/contracts/TodoList.sol\":452:453  i */\n      dup2\n        /* \"src/contracts/TodoList.sol\":452:460  i < size */\n      lt\n        /* \"src/contracts/TodoList.sol\":435:623  for (uint i = 0; i < size; i++) ... */\n      iszero\n      tag_62\n      jumpi\n        /* \"src/contracts/TodoList.sol\":497:502  todos */\n      0x00\n        /* \"src/contracts/TodoList.sol\":503:504  i */\n      dup2\n        /* \"src/contracts/TodoList.sol\":497:505  todos[i] */\n      dup2\n      sload\n      dup2\n      lt\n      tag_64\n      jumpi\n      tag_65\n      tag_29\n      jump\t// in\n    tag_65:\n    tag_64:\n      swap1\n      0x00\n      mstore\n      keccak256(0x00, 0x20)\n      swap1\n      0x03\n      mul\n      add\n        /* \"src/contracts/TodoList.sol\":497:513  todos[i].deleted */\n      0x02\n      add\n      0x01\n      swap1\n      sload\n      swap1\n      0x0100\n      exp\n      swap1\n      div\n      0xff\n      and\n        /* \"src/contracts/TodoList.sol\":492:612  if (!todos[i].deleted) {... */\n      tag_67\n      jumpi\n        /* \"src/contracts/TodoList.sol\":555:560  todos */\n      0x00\n        /* \"src/contracts/TodoList.sol\":561:562  i */\n      dup2\n        /* \"src/contracts/TodoList.sol\":555:563  todos[i] */\n      dup2\n      sload\n      dup2\n      lt\n      tag_68\n      jumpi\n      tag_69\n      tag_29\n      jump\t// in\n    tag_69:\n    tag_68:\n      swap1\n      0x00\n      mstore\n      keccak256(0x00, 0x20)\n      swap1\n      0x03\n      mul\n      add\n        /* \"src/contracts/TodoList.sol\":534:563  copy[currentIndex] = todos[i] */\n      mload(0x40)\n      dup1\n      0x80\n      add\n      0x40\n      mstore\n      swap1\n      dup2\n      0x00\n      dup3\n      add\n      sload\n      dup2\n      mstore\n      0x20\n      add\n      0x01\n      dup3\n      add\n      dup1\n      sload\n      tag_71\n      swap1\n      tag_72\n      jump\t// in\n    tag_71:\n      dup1\n      0x1f\n      add\n      0x20\n      dup1\n      swap2\n      div\n      mul\n      0x20\n      add\n      mload(0x40)\n      swap1\n      dup2\n      add\n      0x40\n      mstore\n      dup1\n      swap3\n      swap2\n      swap1\n      dup2\n      dup2\n      mstore\n      0x20\n      add\n      dup3\n      dup1\n      sload\n      tag_73\n      swap1\n      tag_72\n      jump\t// in\n    tag_73:\n      dup1\n      iszero\n      tag_74\n      jumpi\n      dup1\n      0x1f\n      lt\n      tag_75\n      jumpi\n      0x0100\n      dup1\n      dup4\n      sload\n      div\n      mul\n      dup4\n      mstore\n      swap2\n      0x20\n      add\n      swap2\n      jump(tag_74)\n    tag_75:\n      dup3\n      add\n      swap2\n      swap1\n      0x00\n      mstore\n      keccak256(0x00, 0x20)\n      swap1\n    tag_76:\n      dup2\n      sload\n      dup2\n      mstore\n      swap1\n      0x01\n      add\n      swap1\n      0x20\n      add\n      dup1\n      dup4\n      gt\n      tag_76\n      jumpi\n      dup3\n      swap1\n      sub\n      0x1f\n      and\n      dup3\n      add\n      swap2\n    tag_74:\n      pop\n      pop\n      pop\n      pop\n      pop\n      dup2\n      mstore\n      0x20\n      add\n      0x02\n      dup3\n      add\n      0x00\n      swap1\n      sload\n      swap1\n      0x0100\n      exp\n      swap1\n      div\n      0xff\n      and\n      iszero\n      iszero\n      iszero\n      iszero\n      dup2\n      mstore\n      0x20\n      add\n      0x02\n      dup3\n      add\n      0x01\n      swap1\n      sload\n      swap1\n      0x0100\n      exp\n      swap1\n      div\n      0xff\n      and\n      iszero\n      iszero\n      iszero\n      iszero\n      dup2\n      mstore\n      pop\n      pop\n        /* \"src/contracts/TodoList.sol\":534:538  copy */\n      dup4\n        /* \"src/contracts/TodoList.sol\":539:551  currentIndex */\n      dup4\n        /* \"src/contracts/TodoList.sol\":534:552  copy[currentIndex] */\n      dup2\n      mload\n      dup2\n      lt\n      tag_77\n      jumpi\n      tag_78\n      tag_29\n      jump\t// in\n    tag_78:\n    tag_77:\n      0x20\n      mul\n      0x20\n      add\n      add\n        /* \"src/contracts/TodoList.sol\":534:563  copy[currentIndex] = todos[i] */\n      dup2\n      swap1\n      mstore\n      pop\n        /* \"src/contracts/TodoList.sol\":582:596  currentIndex++ */\n      dup2\n      dup1\n      tag_79\n      swap1\n      tag_36\n      jump\t// in\n    tag_79:\n      swap3\n      pop\n      pop\n        /* \"src/contracts/TodoList.sol\":492:612  if (!todos[i].deleted) {... */\n    tag_67:\n        /* \"src/contracts/TodoList.sol\":462:465  i++ */\n      dup1\n      dup1\n      tag_80\n      swap1\n      tag_36\n      jump\t// in\n    tag_80:\n      swap2\n      pop\n      pop\n        /* \"src/contracts/TodoList.sol\":435:623  for (uint i = 0; i < size; i++) ... */\n      jump(tag_61)\n    tag_62:\n      pop\n        /* \"src/contracts/TodoList.sol\":854:858  copy */\n      dup2\n        /* \"src/contracts/TodoList.sol\":847:858  return copy */\n      swap4\n      pop\n      pop\n      pop\n      pop\n        /* \"src/contracts/TodoList.sol\":251:866  function getTodos() public view returns (Todo[] memory) {... */\n      swap1\n      jump\t// out\n    tag_60:\n      mload(0x40)\n      dup1\n      0x80\n      add\n      0x40\n      mstore\n      dup1\n      0x00\n      dup2\n      mstore\n      0x20\n      add\n      0x60\n      dup2\n      mstore\n      0x20\n      add\n      iszero(iszero(0x00))\n      dup2\n      mstore\n      0x20\n      add\n      iszero(iszero(0x00))\n      dup2\n      mstore\n      pop\n      swap1\n      jump\t// out\n        /* \"#utility.yul\":7:82   */\n    tag_81:\n        /* \"#utility.yul\":40:46   */\n      0x00\n        /* \"#utility.yul\":73:75   */\n      0x40\n        /* \"#utility.yul\":67:76   */\n      mload\n        /* \"#utility.yul\":57:76   */\n      swap1\n      pop\n        /* \"#utility.yul\":7:82   */\n      swap1\n      jump\t// out\n        /* \"#utility.yul\":88:205   */\n    tag_82:\n        /* \"#utility.yul\":197:198   */\n      0x00\n        /* \"#utility.yul\":194:195   */\n      dup1\n        /* \"#utility.yul\":187:199   */\n      revert\n        /* \"#utility.yul\":211:328   */\n    tag_83:\n        /* \"#utility.yul\":320:321   */\n      0x00\n        /* \"#utility.yul\":317:318   */\n      dup1\n        /* \"#utility.yul\":310:322   */\n      revert\n        /* \"#utility.yul\":334:411   */\n    tag_84:\n        /* \"#utility.yul\":371:378   */\n      0x00\n        /* \"#utility.yul\":400:405   */\n      dup2\n        /* \"#utility.yul\":389:405   */\n      swap1\n      pop\n        /* \"#utility.yul\":334:411   */\n      swap2\n      swap1\n      pop\n      jump\t// out\n        /* \"#utility.yul\":417:539   */\n    tag_85:\n        /* \"#utility.yul\":490:514   */\n      tag_135\n        /* \"#utility.yul\":508:513   */\n      dup2\n        /* \"#utility.yul\":490:514   */\n      tag_84\n      jump\t// in\n    tag_135:\n        /* \"#utility.yul\":483:488   */\n      dup2\n        /* \"#utility.yul\":480:515   */\n      eq\n        /* \"#utility.yul\":470:533   */\n      tag_136\n      jumpi\n        /* \"#utility.yul\":529:530   */\n      0x00\n        /* \"#utility.yul\":526:527   */\n      dup1\n        /* \"#utility.yul\":519:531   */\n      revert\n        /* \"#utility.yul\":470:533   */\n    tag_136:\n        /* \"#utility.yul\":417:539   */\n      pop\n      jump\t// out\n        /* \"#utility.yul\":545:684   */\n    tag_86:\n        /* \"#utility.yul\":591:596   */\n      0x00\n        /* \"#utility.yul\":629:635   */\n      dup2\n        /* \"#utility.yul\":616:636   */\n      calldataload\n        /* \"#utility.yul\":607:636   */\n      swap1\n      pop\n        /* \"#utility.yul\":645:678   */\n      tag_138\n        /* \"#utility.yul\":672:677   */\n      dup2\n        /* \"#utility.yul\":645:678   */\n      tag_85\n      jump\t// in\n    tag_138:\n        /* \"#utility.yul\":545:684   */\n      swap3\n      swap2\n      pop\n      pop\n      jump\t// out\n        /* \"#utility.yul\":690:780   */\n    tag_87:\n        /* \"#utility.yul\":724:731   */\n      0x00\n        /* \"#utility.yul\":767:772   */\n      dup2\n        /* \"#utility.yul\":760:773   */\n      iszero\n        /* \"#utility.yul\":753:774   */\n      iszero\n        /* \"#utility.yul\":742:774   */\n      swap1\n      pop\n        /* \"#utility.yul\":690:780   */\n      swap2\n      swap1\n      pop\n      jump\t// out\n        /* \"#utility.yul\":786:902   */\n    tag_88:\n        /* \"#utility.yul\":856:877   */\n      tag_141\n        /* \"#utility.yul\":871:876   */\n      dup2\n        /* \"#utility.yul\":856:877   */\n      tag_87\n      jump\t// in\n    tag_141:\n        /* \"#utility.yul\":849:854   */\n      dup2\n        /* \"#utility.yul\":846:878   */\n      eq\n        /* \"#utility.yul\":836:896   */\n      tag_142\n      jumpi\n        /* \"#utility.yul\":892:893   */\n      0x00\n        /* \"#utility.yul\":889:890   */\n      dup1\n        /* \"#utility.yul\":882:894   */\n      revert\n        /* \"#utility.yul\":836:896   */\n    tag_142:\n        /* \"#utility.yul\":786:902   */\n      pop\n      jump\t// out\n        /* \"#utility.yul\":908:1041   */\n    tag_89:\n        /* \"#utility.yul\":951:956   */\n      0x00\n        /* \"#utility.yul\":989:995   */\n      dup2\n        /* \"#utility.yul\":976:996   */\n      calldataload\n        /* \"#utility.yul\":967:996   */\n      swap1\n      pop\n        /* \"#utility.yul\":1005:1035   */\n      tag_144\n        /* \"#utility.yul\":1029:1034   */\n      dup2\n        /* \"#utility.yul\":1005:1035   */\n      tag_88\n      jump\t// in\n    tag_144:\n        /* \"#utility.yul\":908:1041   */\n      swap3\n      swap2\n      pop\n      pop\n      jump\t// out\n        /* \"#utility.yul\":1047:1515   */\n    tag_9:\n        /* \"#utility.yul\":1112:1118   */\n      0x00\n        /* \"#utility.yul\":1120:1126   */\n      dup1\n        /* \"#utility.yul\":1169:1171   */\n      0x40\n        /* \"#utility.yul\":1157:1166   */\n      dup4\n        /* \"#utility.yul\":1148:1155   */\n      dup6\n        /* \"#utility.yul\":1144:1167   */\n      sub\n        /* \"#utility.yul\":1140:1172   */\n      slt\n        /* \"#utility.yul\":1137:1256   */\n      iszero\n      tag_146\n      jumpi\n        /* \"#utility.yul\":1175:1254   */\n      tag_147\n      tag_82\n      jump\t// in\n    tag_147:\n        /* \"#utility.yul\":1137:1256   */\n    tag_146:\n        /* \"#utility.yul\":1295:1296   */\n      0x00\n        /* \"#utility.yul\":1320:1373   */\n      tag_148\n        /* \"#utility.yul\":1365:1372   */\n      dup6\n        /* \"#utility.yul\":1356:1362   */\n      dup3\n        /* \"#utility.yul\":1345:1354   */\n      dup7\n        /* \"#utility.yul\":1341:1363   */\n      add\n        /* \"#utility.yul\":1320:1373   */\n      tag_86\n      jump\t// in\n    tag_148:\n        /* \"#utility.yul\":1310:1373   */\n      swap3\n      pop\n        /* \"#utility.yul\":1266:1383   */\n      pop\n        /* \"#utility.yul\":1422:1424   */\n      0x20\n        /* \"#utility.yul\":1448:1498   */\n      tag_149\n        /* \"#utility.yul\":1490:1497   */\n      dup6\n        /* \"#utility.yul\":1481:1487   */\n      dup3\n        /* \"#utility.yul\":1470:1479   */\n      dup7\n        /* \"#utility.yul\":1466:1488   */\n      add\n        /* \"#utility.yul\":1448:1498   */\n      tag_89\n      jump\t// in\n    tag_149:\n        /* \"#utility.yul\":1438:1498   */\n      swap2\n      pop\n        /* \"#utility.yul\":1393:1508   */\n      pop\n        /* \"#utility.yul\":1047:1515   */\n      swap3\n      pop\n      swap3\n      swap1\n      pop\n      jump\t// out\n        /* \"#utility.yul\":1521:1850   */\n    tag_13:\n        /* \"#utility.yul\":1580:1586   */\n      0x00\n        /* \"#utility.yul\":1629:1631   */\n      0x20\n        /* \"#utility.yul\":1617:1626   */\n      dup3\n        /* \"#utility.yul\":1608:1615   */\n      dup5\n        /* \"#utility.yul\":1604:1627   */\n      sub\n        /* \"#utility.yul\":1600:1632   */\n      slt\n        /* \"#utility.yul\":1597:1716   */\n      iszero\n      tag_151\n      jumpi\n        /* \"#utility.yul\":1635:1714   */\n      tag_152\n      tag_82\n      jump\t// in\n    tag_152:\n        /* \"#utility.yul\":1597:1716   */\n    tag_151:\n        /* \"#utility.yul\":1755:1756   */\n      0x00\n        /* \"#utility.yul\":1780:1833   */\n      tag_153\n        /* \"#utility.yul\":1825:1832   */\n      dup5\n        /* \"#utility.yul\":1816:1822   */\n      dup3\n        /* \"#utility.yul\":1805:1814   */\n      dup6\n        /* \"#utility.yul\":1801:1823   */\n      add\n        /* \"#utility.yul\":1780:1833   */\n      tag_86\n      jump\t// in\n    tag_153:\n        /* \"#utility.yul\":1770:1833   */\n      swap2\n      pop\n        /* \"#utility.yul\":1726:1843   */\n      pop\n        /* \"#utility.yul\":1521:1850   */\n      swap3\n      swap2\n      pop\n      pop\n      jump\t// out\n        /* \"#utility.yul\":1856:1973   */\n    tag_90:\n        /* \"#utility.yul\":1965:1966   */\n      0x00\n        /* \"#utility.yul\":1962:1963   */\n      dup1\n        /* \"#utility.yul\":1955:1967   */\n      revert\n        /* \"#utility.yul\":1979:2096   */\n    tag_91:\n        /* \"#utility.yul\":2088:2089   */\n      0x00\n        /* \"#utility.yul\":2085:2086   */\n      dup1\n        /* \"#utility.yul\":2078:2090   */\n      revert\n        /* \"#utility.yul\":2102:2204   */\n    tag_92:\n        /* \"#utility.yul\":2143:2149   */\n      0x00\n        /* \"#utility.yul\":2194:2196   */\n      0x1f\n        /* \"#utility.yul\":2190:2197   */\n      not\n        /* \"#utility.yul\":2185:2187   */\n      0x1f\n        /* \"#utility.yul\":2178:2183   */\n      dup4\n        /* \"#utility.yul\":2174:2188   */\n      add\n        /* \"#utility.yul\":2170:2198   */\n      and\n        /* \"#utility.yul\":2160:2198   */\n      swap1\n      pop\n        /* \"#utility.yul\":2102:2204   */\n      swap2\n      swap1\n      pop\n      jump\t// out\n        /* \"#utility.yul\":2210:2390   */\n    tag_56:\n        /* \"#utility.yul\":2258:2335   */\n      0x4e487b7100000000000000000000000000000000000000000000000000000000\n        /* \"#utility.yul\":2255:2256   */\n      0x00\n        /* \"#utility.yul\":2248:2336   */\n      mstore\n        /* \"#utility.yul\":2355:2359   */\n      0x41\n        /* \"#utility.yul\":2352:2353   */\n      0x04\n        /* \"#utility.yul\":2345:2360   */\n      mstore\n        /* \"#utility.yul\":2379:2383   */\n      0x24\n        /* \"#utility.yul\":2376:2377   */\n      0x00\n        /* \"#utility.yul\":2369:2384   */\n      revert\n        /* \"#utility.yul\":2396:2677   */\n    tag_93:\n        /* \"#utility.yul\":2479:2506   */\n      tag_159\n        /* \"#utility.yul\":2501:2505   */\n      dup3\n        /* \"#utility.yul\":2479:2506   */\n      tag_92\n      jump\t// in\n    tag_159:\n        /* \"#utility.yul\":2471:2477   */\n      dup2\n        /* \"#utility.yul\":2467:2507   */\n      add\n        /* \"#utility.yul\":2609:2615   */\n      dup2\n        /* \"#utility.yul\":2597:2607   */\n      dup2\n        /* \"#utility.yul\":2594:2616   */\n      lt\n        /* \"#utility.yul\":2573:2591   */\n      0xffffffffffffffff\n        /* \"#utility.yul\":2561:2571   */\n      dup3\n        /* \"#utility.yul\":2558:2592   */\n      gt\n        /* \"#utility.yul\":2555:2617   */\n      or\n        /* \"#utility.yul\":2552:2640   */\n      iszero\n      tag_160\n      jumpi\n        /* \"#utility.yul\":2620:2638   */\n      tag_161\n      tag_56\n      jump\t// in\n    tag_161:\n        /* \"#utility.yul\":2552:2640   */\n    tag_160:\n        /* \"#utility.yul\":2660:2670   */\n      dup1\n        /* \"#utility.yul\":2656:2658   */\n      0x40\n        /* \"#utility.yul\":2649:2671   */\n      mstore\n        /* \"#utility.yul\":2439:2677   */\n      pop\n        /* \"#utility.yul\":2396:2677   */\n      pop\n      pop\n      jump\t// out\n        /* \"#utility.yul\":2683:2812   */\n    tag_94:\n        /* \"#utility.yul\":2717:2723   */\n      0x00\n        /* \"#utility.yul\":2744:2764   */\n      tag_163\n      tag_81\n      jump\t// in\n    tag_163:\n        /* \"#utility.yul\":2734:2764   */\n      swap1\n      pop\n        /* \"#utility.yul\":2773:2806   */\n      tag_164\n        /* \"#utility.yul\":2801:2805   */\n      dup3\n        /* \"#utility.yul\":2793:2799   */\n      dup3\n        /* \"#utility.yul\":2773:2806   */\n      tag_93\n      jump\t// in\n    tag_164:\n        /* \"#utility.yul\":2683:2812   */\n      swap2\n      swap1\n      pop\n      jump\t// out\n        /* \"#utility.yul\":2818:3126   */\n    tag_95:\n        /* \"#utility.yul\":2880:2884   */\n      0x00\n        /* \"#utility.yul\":2970:2988   */\n      0xffffffffffffffff\n        /* \"#utility.yul\":2962:2968   */\n      dup3\n        /* \"#utility.yul\":2959:2989   */\n      gt\n        /* \"#utility.yul\":2956:3012   */\n      iszero\n      tag_166\n      jumpi\n        /* \"#utility.yul\":2992:3010   */\n      tag_167\n      tag_56\n      jump\t// in\n    tag_167:\n        /* \"#utility.yul\":2956:3012   */\n    tag_166:\n        /* \"#utility.yul\":3030:3059   */\n      tag_168\n        /* \"#utility.yul\":3052:3058   */\n      dup3\n        /* \"#utility.yul\":3030:3059   */\n      tag_92\n      jump\t// in\n    tag_168:\n        /* \"#utility.yul\":3022:3059   */\n      swap1\n      pop\n        /* \"#utility.yul\":3114:3118   */\n      0x20\n        /* \"#utility.yul\":3108:3112   */\n      dup2\n        /* \"#utility.yul\":3104:3119   */\n      add\n        /* \"#utility.yul\":3096:3119   */\n      swap1\n      pop\n        /* \"#utility.yul\":2818:3126   */\n      swap2\n      swap1\n      pop\n      jump\t// out\n        /* \"#utility.yul\":3132:3278   */\n    tag_96:\n        /* \"#utility.yul\":3229:3235   */\n      dup3\n        /* \"#utility.yul\":3224:3227   */\n      dup2\n        /* \"#utility.yul\":3219:3222   */\n      dup4\n        /* \"#utility.yul\":3206:3236   */\n      calldatacopy\n        /* \"#utility.yul\":3270:3271   */\n      0x00\n        /* \"#utility.yul\":3261:3267   */\n      dup4\n        /* \"#utility.yul\":3256:3259   */\n      dup4\n        /* \"#utility.yul\":3252:3268   */\n      add\n        /* \"#utility.yul\":3245:3272   */\n      mstore\n        /* \"#utility.yul\":3132:3278   */\n      pop\n      pop\n      pop\n      jump\t// out\n        /* \"#utility.yul\":3284:3709   */\n    tag_97:\n        /* \"#utility.yul\":3362:3367   */\n      0x00\n        /* \"#utility.yul\":3387:3453   */\n      tag_171\n        /* \"#utility.yul\":3403:3452   */\n      tag_172\n        /* \"#utility.yul\":3445:3451   */\n      dup5\n        /* \"#utility.yul\":3403:3452   */\n      tag_95\n      jump\t// in\n    tag_172:\n        /* \"#utility.yul\":3387:3453   */\n      tag_94\n      jump\t// in\n    tag_171:\n        /* \"#utility.yul\":3378:3453   */\n      swap1\n      pop\n        /* \"#utility.yul\":3476:3482   */\n      dup3\n        /* \"#utility.yul\":3469:3474   */\n      dup2\n        /* \"#utility.yul\":3462:3483   */\n      mstore\n        /* \"#utility.yul\":3514:3518   */\n      0x20\n        /* \"#utility.yul\":3507:3512   */\n      dup2\n        /* \"#utility.yul\":3503:3519   */\n      add\n        /* \"#utility.yul\":3552:3555   */\n      dup5\n        /* \"#utility.yul\":3543:3549   */\n      dup5\n        /* \"#utility.yul\":3538:3541   */\n      dup5\n        /* \"#utility.yul\":3534:3550   */\n      add\n        /* \"#utility.yul\":3531:3556   */\n      gt\n        /* \"#utility.yul\":3528:3640   */\n      iszero\n      tag_173\n      jumpi\n        /* \"#utility.yul\":3559:3638   */\n      tag_174\n      tag_91\n      jump\t// in\n    tag_174:\n        /* \"#utility.yul\":3528:3640   */\n    tag_173:\n        /* \"#utility.yul\":3649:3703   */\n      tag_175\n        /* \"#utility.yul\":3696:3702   */\n      dup5\n        /* \"#utility.yul\":3691:3694   */\n      dup3\n        /* \"#utility.yul\":3686:3689   */\n      dup6\n        /* \"#utility.yul\":3649:3703   */\n      tag_96\n      jump\t// in\n    tag_175:\n        /* \"#utility.yul\":3368:3709   */\n      pop\n        /* \"#utility.yul\":3284:3709   */\n      swap4\n      swap3\n      pop\n      pop\n      pop\n      jump\t// out\n        /* \"#utility.yul\":3729:4069   */\n    tag_98:\n        /* \"#utility.yul\":3785:3790   */\n      0x00\n        /* \"#utility.yul\":3834:3837   */\n      dup3\n        /* \"#utility.yul\":3827:3831   */\n      0x1f\n        /* \"#utility.yul\":3819:3825   */\n      dup4\n        /* \"#utility.yul\":3815:3832   */\n      add\n        /* \"#utility.yul\":3811:3838   */\n      slt\n        /* \"#utility.yul\":3801:3923   */\n      tag_177\n      jumpi\n        /* \"#utility.yul\":3842:3921   */\n      tag_178\n      tag_90\n      jump\t// in\n    tag_178:\n        /* \"#utility.yul\":3801:3923   */\n    tag_177:\n        /* \"#utility.yul\":3959:3965   */\n      dup2\n        /* \"#utility.yul\":3946:3966   */\n      calldataload\n        /* \"#utility.yul\":3984:4063   */\n      tag_179\n        /* \"#utility.yul\":4059:4062   */\n      dup5\n        /* \"#utility.yul\":4051:4057   */\n      dup3\n        /* \"#utility.yul\":4044:4048   */\n      0x20\n        /* \"#utility.yul\":4036:4042   */\n      dup7\n        /* \"#utility.yul\":4032:4049   */\n      add\n        /* \"#utility.yul\":3984:4063   */\n      tag_97\n      jump\t// in\n    tag_179:\n        /* \"#utility.yul\":3975:4063   */\n      swap2\n      pop\n        /* \"#utility.yul\":3791:4069   */\n      pop\n        /* \"#utility.yul\":3729:4069   */\n      swap3\n      swap2\n      pop\n      pop\n      jump\t// out\n        /* \"#utility.yul\":4075:4723   */\n    tag_17:\n        /* \"#utility.yul\":4150:4156   */\n      0x00\n        /* \"#utility.yul\":4158:4164   */\n      dup1\n        /* \"#utility.yul\":4207:4209   */\n      0x40\n        /* \"#utility.yul\":4195:4204   */\n      dup4\n        /* \"#utility.yul\":4186:4193   */\n      dup6\n        /* \"#utility.yul\":4182:4205   */\n      sub\n        /* \"#utility.yul\":4178:4210   */\n      slt\n        /* \"#utility.yul\":4175:4294   */\n      iszero\n      tag_181\n      jumpi\n        /* \"#utility.yul\":4213:4292   */\n      tag_182\n      tag_82\n      jump\t// in\n    tag_182:\n        /* \"#utility.yul\":4175:4294   */\n    tag_181:\n        /* \"#utility.yul\":4361:4362   */\n      0x00\n        /* \"#utility.yul\":4350:4359   */\n      dup4\n        /* \"#utility.yul\":4346:4363   */\n      add\n        /* \"#utility.yul\":4333:4364   */\n      calldataload\n        /* \"#utility.yul\":4391:4409   */\n      0xffffffffffffffff\n        /* \"#utility.yul\":4383:4389   */\n      dup2\n        /* \"#utility.yul\":4380:4410   */\n      gt\n        /* \"#utility.yul\":4377:4494   */\n      iszero\n      tag_183\n      jumpi\n        /* \"#utility.yul\":4413:4492   */\n      tag_184\n      tag_83\n      jump\t// in\n    tag_184:\n        /* \"#utility.yul\":4377:4494   */\n    tag_183:\n        /* \"#utility.yul\":4518:4581   */\n      tag_185\n        /* \"#utility.yul\":4573:4580   */\n      dup6\n        /* \"#utility.yul\":4564:4570   */\n      dup3\n        /* \"#utility.yul\":4553:4562   */\n      dup7\n        /* \"#utility.yul\":4549:4571   */\n      add\n        /* \"#utility.yul\":4518:4581   */\n      tag_98\n      jump\t// in\n    tag_185:\n        /* \"#utility.yul\":4508:4581   */\n      swap3\n      pop\n        /* \"#utility.yul\":4304:4591   */\n      pop\n        /* \"#utility.yul\":4630:4632   */\n      0x20\n        /* \"#utility.yul\":4656:4706   */\n      tag_186\n        /* \"#utility.yul\":4698:4705   */\n      dup6\n        /* \"#utility.yul\":4689:4695   */\n      dup3\n        /* \"#utility.yul\":4678:4687   */\n      dup7\n        /* \"#utility.yul\":4674:4696   */\n      add\n        /* \"#utility.yul\":4656:4706   */\n      tag_89\n      jump\t// in\n    tag_186:\n        /* \"#utility.yul\":4646:4706   */\n      swap2\n      pop\n        /* \"#utility.yul\":4601:4716   */\n      pop\n        /* \"#utility.yul\":4075:4723   */\n      swap3\n      pop\n      swap3\n      swap1\n      pop\n      jump\t// out\n        /* \"#utility.yul\":4729:4863   */\n    tag_99:\n        /* \"#utility.yul\":4816:4822   */\n      0x00\n        /* \"#utility.yul\":4850:4855   */\n      dup2\n        /* \"#utility.yul\":4844:4856   */\n      mload\n        /* \"#utility.yul\":4834:4856   */\n      swap1\n      pop\n        /* \"#utility.yul\":4729:4863   */\n      swap2\n      swap1\n      pop\n      jump\t// out\n        /* \"#utility.yul\":4869:5073   */\n    tag_100:\n        /* \"#utility.yul\":4988:4999   */\n      0x00\n        /* \"#utility.yul\":5022:5028   */\n      dup3\n        /* \"#utility.yul\":5017:5020   */\n      dup3\n        /* \"#utility.yul\":5010:5029   */\n      mstore\n        /* \"#utility.yul\":5062:5066   */\n      0x20\n        /* \"#utility.yul\":5057:5060   */\n      dup3\n        /* \"#utility.yul\":5053:5067   */\n      add\n        /* \"#utility.yul\":5038:5067   */\n      swap1\n      pop\n        /* \"#utility.yul\":4869:5073   */\n      swap3\n      swap2\n      pop\n      pop\n      jump\t// out\n        /* \"#utility.yul\":5079:5231   */\n    tag_101:\n        /* \"#utility.yul\":5166:5170   */\n      0x00\n        /* \"#utility.yul\":5189:5192   */\n      dup2\n        /* \"#utility.yul\":5181:5192   */\n      swap1\n      pop\n        /* \"#utility.yul\":5219:5223   */\n      0x20\n        /* \"#utility.yul\":5214:5217   */\n      dup3\n        /* \"#utility.yul\":5210:5224   */\n      add\n        /* \"#utility.yul\":5202:5224   */\n      swap1\n      pop\n        /* \"#utility.yul\":5079:5231   */\n      swap2\n      swap1\n      pop\n      jump\t// out\n        /* \"#utility.yul\":5237:5345   */\n    tag_102:\n        /* \"#utility.yul\":5314:5338   */\n      tag_191\n        /* \"#utility.yul\":5332:5337   */\n      dup2\n        /* \"#utility.yul\":5314:5338   */\n      tag_84\n      jump\t// in\n    tag_191:\n        /* \"#utility.yul\":5309:5312   */\n      dup3\n        /* \"#utility.yul\":5302:5339   */\n      mstore\n        /* \"#utility.yul\":5237:5345   */\n      pop\n      pop\n      jump\t// out\n        /* \"#utility.yul\":5351:5450   */\n    tag_103:\n        /* \"#utility.yul\":5403:5409   */\n      0x00\n        /* \"#utility.yul\":5437:5442   */\n      dup2\n        /* \"#utility.yul\":5431:5443   */\n      mload\n        /* \"#utility.yul\":5421:5443   */\n      swap1\n      pop\n        /* \"#utility.yul\":5351:5450   */\n      swap2\n      swap1\n      pop\n      jump\t// out\n        /* \"#utility.yul\":5456:5615   */\n    tag_104:\n        /* \"#utility.yul\":5530:5541   */\n      0x00\n        /* \"#utility.yul\":5564:5570   */\n      dup3\n        /* \"#utility.yul\":5559:5562   */\n      dup3\n        /* \"#utility.yul\":5552:5571   */\n      mstore\n        /* \"#utility.yul\":5604:5608   */\n      0x20\n        /* \"#utility.yul\":5599:5602   */\n      dup3\n        /* \"#utility.yul\":5595:5609   */\n      add\n        /* \"#utility.yul\":5580:5609   */\n      swap1\n      pop\n        /* \"#utility.yul\":5456:5615   */\n      swap3\n      swap2\n      pop\n      pop\n      jump\t// out\n        /* \"#utility.yul\":5621:5867   */\n    tag_105:\n        /* \"#utility.yul\":5702:5703   */\n      0x00\n        /* \"#utility.yul\":5712:5825   */\n    tag_195:\n        /* \"#utility.yul\":5726:5732   */\n      dup4\n        /* \"#utility.yul\":5723:5724   */\n      dup2\n        /* \"#utility.yul\":5720:5733   */\n      lt\n        /* \"#utility.yul\":5712:5825   */\n      iszero\n      tag_197\n      jumpi\n        /* \"#utility.yul\":5811:5812   */\n      dup1\n        /* \"#utility.yul\":5806:5809   */\n      dup3\n        /* \"#utility.yul\":5802:5813   */\n      add\n        /* \"#utility.yul\":5796:5814   */\n      mload\n        /* \"#utility.yul\":5792:5793   */\n      dup2\n        /* \"#utility.yul\":5787:5790   */\n      dup5\n        /* \"#utility.yul\":5783:5794   */\n      add\n        /* \"#utility.yul\":5776:5815   */\n      mstore\n        /* \"#utility.yul\":5748:5750   */\n      0x20\n        /* \"#utility.yul\":5745:5746   */\n      dup2\n        /* \"#utility.yul\":5741:5751   */\n      add\n        /* \"#utility.yul\":5736:5751   */\n      swap1\n      pop\n        /* \"#utility.yul\":5712:5825   */\n      jump(tag_195)\n    tag_197:\n        /* \"#utility.yul\":5859:5860   */\n      0x00\n        /* \"#utility.yul\":5850:5856   */\n      dup5\n        /* \"#utility.yul\":5845:5848   */\n      dup5\n        /* \"#utility.yul\":5841:5857   */\n      add\n        /* \"#utility.yul\":5834:5861   */\n      mstore\n        /* \"#utility.yul\":5683:5867   */\n      pop\n        /* \"#utility.yul\":5621:5867   */\n      pop\n      pop\n      pop\n      jump\t// out\n        /* \"#utility.yul\":5873:6230   */\n    tag_106:\n        /* \"#utility.yul\":5951:5954   */\n      0x00\n        /* \"#utility.yul\":5979:6018   */\n      tag_199\n        /* \"#utility.yul\":6012:6017   */\n      dup3\n        /* \"#utility.yul\":5979:6018   */\n      tag_103\n      jump\t// in\n    tag_199:\n        /* \"#utility.yul\":6034:6095   */\n      tag_200\n        /* \"#utility.yul\":6088:6094   */\n      dup2\n        /* \"#utility.yul\":6083:6086   */\n      dup6\n        /* \"#utility.yul\":6034:6095   */\n      tag_104\n      jump\t// in\n    tag_200:\n        /* \"#utility.yul\":6027:6095   */\n      swap4\n      pop\n        /* \"#utility.yul\":6104:6169   */\n      tag_201\n        /* \"#utility.yul\":6162:6168   */\n      dup2\n        /* \"#utility.yul\":6157:6160   */\n      dup6\n        /* \"#utility.yul\":6150:6154   */\n      0x20\n        /* \"#utility.yul\":6143:6148   */\n      dup7\n        /* \"#utility.yul\":6139:6155   */\n      add\n        /* \"#utility.yul\":6104:6169   */\n      tag_105\n      jump\t// in\n    tag_201:\n        /* \"#utility.yul\":6194:6223   */\n      tag_202\n        /* \"#utility.yul\":6216:6222   */\n      dup2\n        /* \"#utility.yul\":6194:6223   */\n      tag_92\n      jump\t// in\n    tag_202:\n        /* \"#utility.yul\":6189:6192   */\n      dup5\n        /* \"#utility.yul\":6185:6224   */\n      add\n        /* \"#utility.yul\":6178:6224   */\n      swap2\n      pop\n        /* \"#utility.yul\":5955:6230   */\n      pop\n        /* \"#utility.yul\":5873:6230   */\n      swap3\n      swap2\n      pop\n      pop\n      jump\t// out\n        /* \"#utility.yul\":6236:6335   */\n    tag_107:\n        /* \"#utility.yul\":6307:6328   */\n      tag_204\n        /* \"#utility.yul\":6322:6327   */\n      dup2\n        /* \"#utility.yul\":6307:6328   */\n      tag_87\n      jump\t// in\n    tag_204:\n        /* \"#utility.yul\":6302:6305   */\n      dup3\n        /* \"#utility.yul\":6295:6329   */\n      mstore\n        /* \"#utility.yul\":6236:6335   */\n      pop\n      pop\n      jump\t// out\n        /* \"#utility.yul\":6375:7298   */\n    tag_108:\n        /* \"#utility.yul\":6474:6477   */\n      0x00\n        /* \"#utility.yul\":6510:6514   */\n      0x80\n        /* \"#utility.yul\":6505:6508   */\n      dup4\n        /* \"#utility.yul\":6501:6515   */\n      add\n        /* \"#utility.yul\":6595:6599   */\n      0x00\n        /* \"#utility.yul\":6588:6593   */\n      dup4\n        /* \"#utility.yul\":6584:6600   */\n      add\n        /* \"#utility.yul\":6578:6601   */\n      mload\n        /* \"#utility.yul\":6614:6677   */\n      tag_206\n        /* \"#utility.yul\":6671:6675   */\n      0x00\n        /* \"#utility.yul\":6666:6669   */\n      dup7\n        /* \"#utility.yul\":6662:6676   */\n      add\n        /* \"#utility.yul\":6648:6660   */\n      dup3\n        /* \"#utility.yul\":6614:6677   */\n      tag_102\n      jump\t// in\n    tag_206:\n        /* \"#utility.yul\":6525:6687   */\n      pop\n        /* \"#utility.yul\":6769:6773   */\n      0x20\n        /* \"#utility.yul\":6762:6767   */\n      dup4\n        /* \"#utility.yul\":6758:6774   */\n      add\n        /* \"#utility.yul\":6752:6775   */\n      mload\n        /* \"#utility.yul\":6822:6825   */\n      dup5\n        /* \"#utility.yul\":6816:6820   */\n      dup3\n        /* \"#utility.yul\":6812:6826   */\n      sub\n        /* \"#utility.yul\":6805:6809   */\n      0x20\n        /* \"#utility.yul\":6800:6803   */\n      dup7\n        /* \"#utility.yul\":6796:6810   */\n      add\n        /* \"#utility.yul\":6789:6827   */\n      mstore\n        /* \"#utility.yul\":6848:6921   */\n      tag_207\n        /* \"#utility.yul\":6916:6920   */\n      dup3\n        /* \"#utility.yul\":6902:6914   */\n      dup3\n        /* \"#utility.yul\":6848:6921   */\n      tag_106\n      jump\t// in\n    tag_207:\n        /* \"#utility.yul\":6840:6921   */\n      swap2\n      pop\n        /* \"#utility.yul\":6697:6932   */\n      pop\n        /* \"#utility.yul\":7014:7018   */\n      0x40\n        /* \"#utility.yul\":7007:7012   */\n      dup4\n        /* \"#utility.yul\":7003:7019   */\n      add\n        /* \"#utility.yul\":6997:7020   */\n      mload\n        /* \"#utility.yul\":7033:7090   */\n      tag_208\n        /* \"#utility.yul\":7084:7088   */\n      0x40\n        /* \"#utility.yul\":7079:7082   */\n      dup7\n        /* \"#utility.yul\":7075:7089   */\n      add\n        /* \"#utility.yul\":7061:7073   */\n      dup3\n        /* \"#utility.yul\":7033:7090   */\n      tag_107\n      jump\t// in\n    tag_208:\n        /* \"#utility.yul\":6942:7100   */\n      pop\n        /* \"#utility.yul\":7185:7189   */\n      0x60\n        /* \"#utility.yul\":7178:7183   */\n      dup4\n        /* \"#utility.yul\":7174:7190   */\n      add\n        /* \"#utility.yul\":7168:7191   */\n      mload\n        /* \"#utility.yul\":7204:7261   */\n      tag_209\n        /* \"#utility.yul\":7255:7259   */\n      0x60\n        /* \"#utility.yul\":7250:7253   */\n      dup7\n        /* \"#utility.yul\":7246:7260   */\n      add\n        /* \"#utility.yul\":7232:7244   */\n      dup3\n        /* \"#utility.yul\":7204:7261   */\n      tag_107\n      jump\t// in\n    tag_209:\n        /* \"#utility.yul\":7110:7271   */\n      pop\n        /* \"#utility.yul\":7288:7292   */\n      dup1\n        /* \"#utility.yul\":7281:7292   */\n      swap2\n      pop\n        /* \"#utility.yul\":6479:7298   */\n      pop\n        /* \"#utility.yul\":6375:7298   */\n      swap3\n      swap2\n      pop\n      pop\n      jump\t// out\n        /* \"#utility.yul\":7304:7540   */\n    tag_109:\n        /* \"#utility.yul\":7413:7423   */\n      0x00\n        /* \"#utility.yul\":7448:7534   */\n      tag_211\n        /* \"#utility.yul\":7530:7533   */\n      dup4\n        /* \"#utility.yul\":7522:7528   */\n      dup4\n        /* \"#utility.yul\":7448:7534   */\n      tag_108\n      jump\t// in\n    tag_211:\n        /* \"#utility.yul\":7434:7534   */\n      swap1\n      pop\n        /* \"#utility.yul\":7304:7540   */\n      swap3\n      swap2\n      pop\n      pop\n      jump\t// out\n        /* \"#utility.yul\":7546:7679   */\n    tag_110:\n        /* \"#utility.yul\":7636:7640   */\n      0x00\n        /* \"#utility.yul\":7668:7672   */\n      0x20\n        /* \"#utility.yul\":7663:7666   */\n      dup3\n        /* \"#utility.yul\":7659:7673   */\n      add\n        /* \"#utility.yul\":7651:7673   */\n      swap1\n      pop\n        /* \"#utility.yul\":7546:7679   */\n      swap2\n      swap1\n      pop\n      jump\t// out\n        /* \"#utility.yul\":7723:8794   */\n    tag_111:\n        /* \"#utility.yul\":7882:7885   */\n      0x00\n        /* \"#utility.yul\":7911:7985   */\n      tag_214\n        /* \"#utility.yul\":7979:7984   */\n      dup3\n        /* \"#utility.yul\":7911:7985   */\n      tag_99\n      jump\t// in\n    tag_214:\n        /* \"#utility.yul\":8001:8107   */\n      tag_215\n        /* \"#utility.yul\":8100:8106   */\n      dup2\n        /* \"#utility.yul\":8095:8098   */\n      dup6\n        /* \"#utility.yul\":8001:8107   */\n      tag_100\n      jump\t// in\n    tag_215:\n        /* \"#utility.yul\":7994:8107   */\n      swap4\n      pop\n        /* \"#utility.yul\":8133:8136   */\n      dup4\n        /* \"#utility.yul\":8178:8182   */\n      0x20\n        /* \"#utility.yul\":8170:8176   */\n      dup3\n        /* \"#utility.yul\":8166:8183   */\n      mul\n        /* \"#utility.yul\":8161:8164   */\n      dup6\n        /* \"#utility.yul\":8157:8184   */\n      add\n        /* \"#utility.yul\":8208:8284   */\n      tag_216\n        /* \"#utility.yul\":8278:8283   */\n      dup6\n        /* \"#utility.yul\":8208:8284   */\n      tag_101\n      jump\t// in\n    tag_216:\n        /* \"#utility.yul\":8307:8314   */\n      dup1\n        /* \"#utility.yul\":8338:8339   */\n      0x00\n        /* \"#utility.yul\":8323:8749   */\n    tag_217:\n        /* \"#utility.yul\":8348:8354   */\n      dup6\n        /* \"#utility.yul\":8345:8346   */\n      dup2\n        /* \"#utility.yul\":8342:8355   */\n      lt\n        /* \"#utility.yul\":8323:8749   */\n      iszero\n      tag_219\n      jumpi\n        /* \"#utility.yul\":8419:8428   */\n      dup5\n        /* \"#utility.yul\":8413:8417   */\n      dup5\n        /* \"#utility.yul\":8409:8429   */\n      sub\n        /* \"#utility.yul\":8404:8407   */\n      dup10\n        /* \"#utility.yul\":8397:8430   */\n      mstore\n        /* \"#utility.yul\":8470:8476   */\n      dup2\n        /* \"#utility.yul\":8464:8477   */\n      mload\n        /* \"#utility.yul\":8498:8602   */\n      tag_220\n        /* \"#utility.yul\":8597:8601   */\n      dup6\n        /* \"#utility.yul\":8582:8595   */\n      dup3\n        /* \"#utility.yul\":8498:8602   */\n      tag_109\n      jump\t// in\n    tag_220:\n        /* \"#utility.yul\":8490:8602   */\n      swap5\n      pop\n        /* \"#utility.yul\":8625:8705   */\n      tag_221\n        /* \"#utility.yul\":8698:8704   */\n      dup4\n        /* \"#utility.yul\":8625:8705   */\n      tag_110\n      jump\t// in\n    tag_221:\n        /* \"#utility.yul\":8615:8705   */\n      swap3\n      pop\n        /* \"#utility.yul\":8734:8738   */\n      0x20\n        /* \"#utility.yul\":8729:8732   */\n      dup11\n        /* \"#utility.yul\":8725:8739   */\n      add\n        /* \"#utility.yul\":8718:8739   */\n      swap10\n      pop\n        /* \"#utility.yul\":8383:8749   */\n      pop\n        /* \"#utility.yul\":8370:8371   */\n      0x01\n        /* \"#utility.yul\":8367:8368   */\n      dup2\n        /* \"#utility.yul\":8363:8372   */\n      add\n        /* \"#utility.yul\":8358:8372   */\n      swap1\n      pop\n        /* \"#utility.yul\":8323:8749   */\n      jump(tag_217)\n    tag_219:\n        /* \"#utility.yul\":8327:8341   */\n      pop\n        /* \"#utility.yul\":8765:8769   */\n      dup3\n        /* \"#utility.yul\":8758:8769   */\n      swap8\n      pop\n        /* \"#utility.yul\":8785:8788   */\n      dup8\n        /* \"#utility.yul\":8778:8788   */\n      swap6\n      pop\n        /* \"#utility.yul\":7887:8794   */\n      pop\n      pop\n      pop\n      pop\n      pop\n        /* \"#utility.yul\":7723:8794   */\n      swap3\n      swap2\n      pop\n      pop\n      jump\t// out\n        /* \"#utility.yul\":8800:9253   */\n    tag_22:\n        /* \"#utility.yul\":8983:8987   */\n      0x00\n        /* \"#utility.yul\":9021:9023   */\n      0x20\n        /* \"#utility.yul\":9010:9019   */\n      dup3\n        /* \"#utility.yul\":9006:9024   */\n      add\n        /* \"#utility.yul\":8998:9024   */\n      swap1\n      pop\n        /* \"#utility.yul\":9070:9079   */\n      dup2\n        /* \"#utility.yul\":9064:9068   */\n      dup2\n        /* \"#utility.yul\":9060:9080   */\n      sub\n        /* \"#utility.yul\":9056:9057   */\n      0x00\n        /* \"#utility.yul\":9045:9054   */\n      dup4\n        /* \"#utility.yul\":9041:9058   */\n      add\n        /* \"#utility.yul\":9034:9081   */\n      mstore\n        /* \"#utility.yul\":9098:9246   */\n      tag_223\n        /* \"#utility.yul\":9241:9245   */\n      dup2\n        /* \"#utility.yul\":9232:9238   */\n      dup5\n        /* \"#utility.yul\":9098:9246   */\n      tag_111\n      jump\t// in\n    tag_223:\n        /* \"#utility.yul\":9090:9246   */\n      swap1\n      pop\n        /* \"#utility.yul\":8800:9253   */\n      swap3\n      swap2\n      pop\n      pop\n      jump\t// out\n        /* \"#utility.yul\":9259:9439   */\n    tag_29:\n        /* \"#utility.yul\":9307:9384   */\n      0x4e487b7100000000000000000000000000000000000000000000000000000000\n        /* \"#utility.yul\":9304:9305   */\n      0x00\n        /* \"#utility.yul\":9297:9385   */\n      mstore\n        /* \"#utility.yul\":9404:9408   */\n      0x32\n        /* \"#utility.yul\":9401:9402   */\n      0x04\n        /* \"#utility.yul\":9394:9409   */\n      mstore\n        /* \"#utility.yul\":9428:9432   */\n      0x24\n        /* \"#utility.yul\":9425:9426   */\n      0x00\n        /* \"#utility.yul\":9418:9433   */\n      revert\n        /* \"#utility.yul\":9445:9625   */\n    tag_112:\n        /* \"#utility.yul\":9493:9570   */\n      0x4e487b7100000000000000000000000000000000000000000000000000000000\n        /* \"#utility.yul\":9490:9491   */\n      0x00\n        /* \"#utility.yul\":9483:9571   */\n      mstore\n        /* \"#utility.yul\":9590:9594   */\n      0x11\n        /* \"#utility.yul\":9587:9588   */\n      0x04\n        /* \"#utility.yul\":9580:9595   */\n      mstore\n        /* \"#utility.yul\":9614:9618   */\n      0x24\n        /* \"#utility.yul\":9611:9612   */\n      0x00\n        /* \"#utility.yul\":9604:9619   */\n      revert\n        /* \"#utility.yul\":9631:9864   */\n    tag_36:\n        /* \"#utility.yul\":9670:9673   */\n      0x00\n        /* \"#utility.yul\":9693:9717   */\n      tag_227\n        /* \"#utility.yul\":9711:9716   */\n      dup3\n        /* \"#utility.yul\":9693:9717   */\n      tag_84\n      jump\t// in\n    tag_227:\n        /* \"#utility.yul\":9684:9717   */\n      swap2\n      pop\n        /* \"#utility.yul\":9739:9805   */\n      0xffffffffffffffffffffffffffffffffffffffffffffffffffffffffffffffff\n        /* \"#utility.yul\":9732:9737   */\n      dup3\n        /* \"#utility.yul\":9729:9806   */\n      sub\n        /* \"#utility.yul\":9726:9829   */\n      tag_228\n      jumpi\n        /* \"#utility.yul\":9809:9827   */\n      tag_229\n      tag_112\n      jump\t// in\n    tag_229:\n        /* \"#utility.yul\":9726:9829   */\n    tag_228:\n        /* \"#utility.yul\":9856:9857   */\n      0x01\n        /* \"#utility.yul\":9849:9854   */\n      dup3\n        /* \"#utility.yul\":9845:9858   */\n      add\n        /* \"#utility.yul\":9838:9858   */\n      swap1\n      pop\n        /* \"#utility.yul\":9631:9864   */\n      swap2\n      swap1\n      pop\n      jump\t// out\n        /* \"#utility.yul\":9870:10050   */\n    tag_113:\n        /* \"#utility.yul\":9918:9995   */\n      0x4e487b7100000000000000000000000000000000000000000000000000000000\n        /* \"#utility.yul\":9915:9916   */\n      0x00\n        /* \"#utility.yul\":9908:9996   */\n      mstore\n        /* \"#utility.yul\":10015:10019   */\n      0x22\n        /* \"#utility.yul\":10012:10013   */\n      0x04\n        /* \"#utility.yul\":10005:10020   */\n      mstore\n        /* \"#utility.yul\":10039:10043   */\n      0x24\n        /* \"#utility.yul\":10036:10037   */\n      0x00\n        /* \"#utility.yul\":10029:10044   */\n      revert\n        /* \"#utility.yul\":10056:10376   */\n    tag_72:\n        /* \"#utility.yul\":10100:10106   */\n      0x00\n        /* \"#utility.yul\":10137:10138   */\n      0x02\n        /* \"#utility.yul\":10131:10135   */\n      dup3\n        /* \"#utility.yul\":10127:10139   */\n      div\n        /* \"#utility.yul\":10117:10139   */\n      swap1\n      pop\n        /* \"#utility.yul\":10184:10185   */\n      0x01\n        /* \"#utility.yul\":10178:10182   */\n      dup3\n        /* \"#utility.yul\":10174:10186   */\n      and\n        /* \"#utility.yul\":10205:10223   */\n      dup1\n        /* \"#utility.yul\":10195:10276   */\n      tag_232\n      jumpi\n        /* \"#utility.yul\":10261:10265   */\n      0x7f\n        /* \"#utility.yul\":10253:10259   */\n      dup3\n        /* \"#utility.yul\":10249:10266   */\n      and\n        /* \"#utility.yul\":10239:10266   */\n      swap2\n      pop\n        /* \"#utility.yul\":10195:10276   */\n    tag_232:\n        /* \"#utility.yul\":10323:10325   */\n      0x20\n        /* \"#utility.yul\":10315:10321   */\n      dup3\n        /* \"#utility.yul\":10312:10326   */\n      lt\n        /* \"#utility.yul\":10292:10310   */\n      dup2\n        /* \"#utility.yul\":10289:10327   */\n      sub\n        /* \"#utility.yul\":10286:10370   */\n      tag_233\n      jumpi\n        /* \"#utility.yul\":10342:10360   */\n      tag_234\n      tag_113\n      jump\t// in\n    tag_234:\n        /* \"#utility.yul\":10286:10370   */\n    tag_233:\n        /* \"#utility.yul\":10107:10376   */\n      pop\n        /* \"#utility.yul\":10056:10376   */\n      swap2\n      swap1\n      pop\n      jump\t// out\n        /* \"#utility.yul\":10382:10523   */\n    tag_114:\n        /* \"#utility.yul\":10431:10435   */\n      0x00\n        /* \"#utility.yul\":10454:10457   */\n      dup2\n        /* \"#utility.yul\":10446:10457   */\n      swap1\n      pop\n        /* \"#utility.yul\":10477:10480   */\n      dup2\n        /* \"#utility.yul\":10474:10475   */\n      0x00\n        /* \"#utility.yul\":10467:10481   */\n      mstore\n        /* \"#utility.yul\":10511:10515   */\n      0x20\n        /* \"#utility.yul\":10508:10509   */\n      0x00\n        /* \"#utility.yul\":10498:10516   */\n      keccak256\n        /* \"#utility.yul\":10490:10516   */\n      swap1\n      pop\n        /* \"#utility.yul\":10382:10523   */\n      swap2\n      swap1\n      pop\n      jump\t// out\n        /* \"#utility.yul\":10529:10622   */\n    tag_115:\n        /* \"#utility.yul\":10566:10572   */\n      0x00\n        /* \"#utility.yul\":10613:10615   */\n      0x20\n        /* \"#utility.yul\":10608:10610   */\n      0x1f\n        /* \"#utility.yul\":10601:10606   */\n      dup4\n        /* \"#utility.yul\":10597:10611   */\n      add\n        /* \"#utility.yul\":10593:10616   */\n      div\n        /* \"#utility.yul\":10583:10616   */\n      swap1\n      pop\n        /* \"#utility.yul\":10529:10622   */\n      swap2\n      swap1\n      pop\n      jump\t// out\n        /* \"#utility.yul\":10628:10735   */\n    tag_116:\n        /* \"#utility.yul\":10672:10680   */\n      0x00\n        /* \"#utility.yul\":10722:10727   */\n      dup3\n        /* \"#utility.yul\":10716:10720   */\n      dup3\n        /* \"#utility.yul\":10712:10728   */\n      shl\n        /* \"#utility.yul\":10691:10728   */\n      swap1\n      pop\n        /* \"#utility.yul\":10628:10735   */\n      swap3\n      swap2\n      pop\n      pop\n      jump\t// out\n        /* \"#utility.yul\":10741:11134   */\n    tag_117:\n        /* \"#utility.yul\":10810:10816   */\n      0x00\n        /* \"#utility.yul\":10860:10861   */\n      0x08\n        /* \"#utility.yul\":10848:10858   */\n      dup4\n        /* \"#utility.yul\":10844:10862   */\n      mul\n        /* \"#utility.yul\":10883:10980   */\n      tag_239\n        /* \"#utility.yul\":10913:10979   */\n      0xffffffffffffffffffffffffffffffffffffffffffffffffffffffffffffffff\n        /* \"#utility.yul\":10902:10911   */\n      dup3\n        /* \"#utility.yul\":10883:10980   */\n      tag_116\n      jump\t// in\n    tag_239:\n        /* \"#utility.yul\":11001:11040   */\n      tag_240\n        /* \"#utility.yul\":11031:11039   */\n      dup7\n        /* \"#utility.yul\":11020:11029   */\n      dup4\n        /* \"#utility.yul\":11001:11040   */\n      tag_116\n      jump\t// in\n    tag_240:\n        /* \"#utility.yul\":10989:11040   */\n      swap6\n      pop\n        /* \"#utility.yul\":11073:11077   */\n      dup1\n        /* \"#utility.yul\":11069:11078   */\n      not\n        /* \"#utility.yul\":11062:11067   */\n      dup5\n        /* \"#utility.yul\":11058:11079   */\n      and\n        /* \"#utility.yul\":11049:11079   */\n      swap4\n      pop\n        /* \"#utility.yul\":11122:11126   */\n      dup1\n        /* \"#utility.yul\":11112:11120   */\n      dup7\n        /* \"#utility.yul\":11108:11127   */\n      and\n        /* \"#utility.yul\":11101:11106   */\n      dup5\n        /* \"#utility.yul\":11098:11128   */\n      or\n        /* \"#utility.yul\":11088:11128   */\n      swap3\n      pop\n        /* \"#utility.yul\":10817:11134   */\n      pop\n      pop\n        /* \"#utility.yul\":10741:11134   */\n      swap4\n      swap3\n      pop\n      pop\n      pop\n      jump\t// out\n        /* \"#utility.yul\":11140:11200   */\n    tag_118:\n        /* \"#utility.yul\":11168:11171   */\n      0x00\n        /* \"#utility.yul\":11189:11194   */\n      dup2\n        /* \"#utility.yul\":11182:11194   */\n      swap1\n      pop\n        /* \"#utility.yul\":11140:11200   */\n      swap2\n      swap1\n      pop\n      jump\t// out\n        /* \"#utility.yul\":11206:11348   */\n    tag_119:\n        /* \"#utility.yul\":11256:11265   */\n      0x00\n        /* \"#utility.yul\":11289:11342   */\n      tag_243\n        /* \"#utility.yul\":11307:11341   */\n      tag_244\n        /* \"#utility.yul\":11316:11340   */\n      tag_245\n        /* \"#utility.yul\":11334:11339   */\n      dup5\n        /* \"#utility.yul\":11316:11340   */\n      tag_84\n      jump\t// in\n    tag_245:\n        /* \"#utility.yul\":11307:11341   */\n      tag_118\n      jump\t// in\n    tag_244:\n        /* \"#utility.yul\":11289:11342   */\n      tag_84\n      jump\t// in\n    tag_243:\n        /* \"#utility.yul\":11276:11342   */\n      swap1\n      pop\n        /* \"#utility.yul\":11206:11348   */\n      swap2\n      swap1\n      pop\n      jump\t// out\n        /* \"#utility.yul\":11354:11429   */\n    tag_120:\n        /* \"#utility.yul\":11397:11400   */\n      0x00\n        /* \"#utility.yul\":11418:11423   */\n      dup2\n        /* \"#utility.yul\":11411:11423   */\n      swap1\n      pop\n        /* \"#utility.yul\":11354:11429   */\n      swap2\n      swap1\n      pop\n      jump\t// out\n        /* \"#utility.yul\":11435:11704   */\n    tag_121:\n        /* \"#utility.yul\":11545:11584   */\n      tag_248\n        /* \"#utility.yul\":11576:11583   */\n      dup4\n        /* \"#utility.yul\":11545:11584   */\n      tag_119\n      jump\t// in\n    tag_248:\n        /* \"#utility.yul\":11606:11697   */\n      tag_249\n        /* \"#utility.yul\":11655:11696   */\n      tag_250\n        /* \"#utility.yul\":11679:11695   */\n      dup3\n        /* \"#utility.yul\":11655:11696   */\n      tag_120\n      jump\t// in\n    tag_250:\n        /* \"#utility.yul\":11647:11653   */\n      dup5\n        /* \"#utility.yul\":11640:11644   */\n      dup5\n        /* \"#utility.yul\":11634:11645   */\n      sload\n        /* \"#utility.yul\":11606:11697   */\n      tag_117\n      jump\t// in\n    tag_249:\n        /* \"#utility.yul\":11600:11604   */\n      dup3\n        /* \"#utility.yul\":11593:11698   */\n      sstore\n        /* \"#utility.yul\":11511:11704   */\n      pop\n        /* \"#utility.yul\":11435:11704   */\n      pop\n      pop\n      pop\n      jump\t// out\n        /* \"#utility.yul\":11710:11783   */\n    tag_122:\n        /* \"#utility.yul\":11755:11758   */\n      0x00\n        /* \"#utility.yul\":11710:11783   */\n      swap1\n      jump\t// out\n        /* \"#utility.yul\":11789:11978   */\n    tag_123:\n        /* \"#utility.yul\":11866:11898   */\n      tag_253\n      tag_122\n      jump\t// in\n    tag_253:\n        /* \"#utility.yul\":11907:11972   */\n      tag_254\n        /* \"#utility.yul\":11965:11971   */\n      dup2\n        /* \"#utility.yul\":11957:11963   */\n      dup5\n        /* \"#utility.yul\":11951:11955   */\n      dup5\n        /* \"#utility.yul\":11907:11972   */\n      tag_121\n      jump\t// in\n    tag_254:\n        /* \"#utility.yul\":11842:11978   */\n      pop\n        /* \"#utility.yul\":11789:11978   */\n      pop\n      pop\n      jump\t// out\n        /* \"#utility.yul\":11984:12170   */\n    tag_124:\n        /* \"#utility.yul\":12044:12164   */\n    tag_256:\n        /* \"#utility.yul\":12061:12064   */\n      dup2\n        /* \"#utility.yul\":12054:12059   */\n      dup2\n        /* \"#utility.yul\":12051:12065   */\n      lt\n        /* \"#utility.yul\":12044:12164   */\n      iszero\n      tag_258\n      jumpi\n        /* \"#utility.yul\":12115:12154   */\n      tag_259\n        /* \"#utility.yul\":12152:12153   */\n      0x00\n        /* \"#utility.yul\":12145:12150   */\n      dup3\n        /* \"#utility.yul\":12115:12154   */\n      tag_123\n      jump\t// in\n    tag_259:\n        /* \"#utility.yul\":12088:12089   */\n      0x01\n        /* \"#utility.yul\":12081:12086   */\n      dup2\n        /* \"#utility.yul\":12077:12090   */\n      add\n        /* \"#utility.yul\":12068:12090   */\n      swap1\n      pop\n        /* \"#utility.yul\":12044:12164   */\n      jump(tag_256)\n    tag_258:\n        /* \"#utility.yul\":11984:12170   */\n      pop\n      pop\n      jump\t// out\n        /* \"#utility.yul\":12176:12719   */\n    tag_125:\n        /* \"#utility.yul\":12277:12279   */\n      0x1f\n        /* \"#utility.yul\":12272:12275   */\n      dup3\n        /* \"#utility.yul\":12269:12280   */\n      gt\n        /* \"#utility.yul\":12266:12712   */\n      iszero\n      tag_261\n      jumpi\n        /* \"#utility.yul\":12311:12349   */\n      tag_262\n        /* \"#utility.yul\":12343:12348   */\n      dup2\n        /* \"#utility.yul\":12311:12349   */\n      tag_114\n      jump\t// in\n    tag_262:\n        /* \"#utility.yul\":12395:12424   */\n      tag_263\n        /* \"#utility.yul\":12413:12423   */\n      dup5\n        /* \"#utility.yul\":12395:12424   */\n      tag_115\n      jump\t// in\n    tag_263:\n        /* \"#utility.yul\":12385:12393   */\n      dup2\n        /* \"#utility.yul\":12381:12425   */\n      add\n        /* \"#utility.yul\":12578:12580   */\n      0x20\n        /* \"#utility.yul\":12566:12576   */\n      dup6\n        /* \"#utility.yul\":12563:12581   */\n      lt\n        /* \"#utility.yul\":12560:12609   */\n      iszero\n      tag_264\n      jumpi\n        /* \"#utility.yul\":12599:12607   */\n      dup2\n        /* \"#utility.yul\":12584:12607   */\n      swap1\n      pop\n        /* \"#utility.yul\":12560:12609   */\n    tag_264:\n        /* \"#utility.yul\":12622:12702   */\n      tag_265\n        /* \"#utility.yul\":12678:12700   */\n      tag_266\n        /* \"#utility.yul\":12696:12699   */\n      dup6\n        /* \"#utility.yul\":12678:12700   */\n      tag_115\n      jump\t// in\n    tag_266:\n        /* \"#utility.yul\":12668:12676   */\n      dup4\n        /* \"#utility.yul\":12664:12701   */\n      add\n        /* \"#utility.yul\":12651:12662   */\n      dup3\n        /* \"#utility.yul\":12622:12702   */\n      tag_124\n      jump\t// in\n    tag_265:\n        /* \"#utility.yul\":12281:12712   */\n      pop\n      pop\n        /* \"#utility.yul\":12266:12712   */\n    tag_261:\n        /* \"#utility.yul\":12176:12719   */\n      pop\n      pop\n      pop\n      jump\t// out\n        /* \"#utility.yul\":12725:12842   */\n    tag_126:\n        /* \"#utility.yul\":12779:12787   */\n      0x00\n        /* \"#utility.yul\":12829:12834   */\n      dup3\n        /* \"#utility.yul\":12823:12827   */\n      dup3\n        /* \"#utility.yul\":12819:12835   */\n      shr\n        /* \"#utility.yul\":12798:12835   */\n      swap1\n      pop\n        /* \"#utility.yul\":12725:12842   */\n      swap3\n      swap2\n      pop\n      pop\n      jump\t// out\n        /* \"#utility.yul\":12848:13017   */\n    tag_127:\n        /* \"#utility.yul\":12892:12898   */\n      0x00\n        /* \"#utility.yul\":12925:12976   */\n      tag_269\n        /* \"#utility.yul\":12973:12974   */\n      0x00\n        /* \"#utility.yul\":12969:12975   */\n      not\n        /* \"#utility.yul\":12961:12966   */\n      dup5\n        /* \"#utility.yul\":12958:12959   */\n      0x08\n        /* \"#utility.yul\":12954:12967   */\n      mul\n        /* \"#utility.yul\":12925:12976   */\n      tag_126\n      jump\t// in\n    tag_269:\n        /* \"#utility.yul\":12921:12977   */\n      not\n        /* \"#utility.yul\":13006:13010   */\n      dup1\n        /* \"#utility.yul\":13000:13004   */\n      dup4\n        /* \"#utility.yul\":12996:13011   */\n      and\n        /* \"#utility.yul\":12986:13011   */\n      swap2\n      pop\n        /* \"#utility.yul\":12899:13017   */\n      pop\n        /* \"#utility.yul\":12848:13017   */\n      swap3\n      swap2\n      pop\n      pop\n      jump\t// out\n        /* \"#utility.yul\":13022:13317   */\n    tag_128:\n        /* \"#utility.yul\":13098:13102   */\n      0x00\n        /* \"#utility.yul\":13244:13273   */\n      tag_271\n        /* \"#utility.yul\":13269:13272   */\n      dup4\n        /* \"#utility.yul\":13263:13267   */\n      dup4\n        /* \"#utility.yul\":13244:13273   */\n      tag_127\n      jump\t// in\n    tag_271:\n        /* \"#utility.yul\":13236:13273   */\n      swap2\n      pop\n        /* \"#utility.yul\":13306:13309   */\n      dup3\n        /* \"#utility.yul\":13303:13304   */\n      0x02\n        /* \"#utility.yul\":13299:13310   */\n      mul\n        /* \"#utility.yul\":13293:13297   */\n      dup3\n        /* \"#utility.yul\":13290:13311   */\n      or\n        /* \"#utility.yul\":13282:13311   */\n      swap1\n      pop\n        /* \"#utility.yul\":13022:13317   */\n      swap3\n      swap2\n      pop\n      pop\n      jump\t// out\n        /* \"#utility.yul\":13322:14717   */\n    tag_52:\n        /* \"#utility.yul\":13439:13476   */\n      tag_273\n        /* \"#utility.yul\":13472:13475   */\n      dup3\n        /* \"#utility.yul\":13439:13476   */\n      tag_103\n      jump\t// in\n    tag_273:\n        /* \"#utility.yul\":13541:13559   */\n      0xffffffffffffffff\n        /* \"#utility.yul\":13533:13539   */\n      dup2\n        /* \"#utility.yul\":13530:13560   */\n      gt\n        /* \"#utility.yul\":13527:13583   */\n      iszero\n      tag_274\n      jumpi\n        /* \"#utility.yul\":13563:13581   */\n      tag_275\n      tag_56\n      jump\t// in\n    tag_275:\n        /* \"#utility.yul\":13527:13583   */\n    tag_274:\n        /* \"#utility.yul\":13607:13645   */\n      tag_276\n        /* \"#utility.yul\":13639:13643   */\n      dup3\n        /* \"#utility.yul\":13633:13644   */\n      sload\n        /* \"#utility.yul\":13607:13645   */\n      tag_72\n      jump\t// in\n    tag_276:\n        /* \"#utility.yul\":13692:13759   */\n      tag_277\n        /* \"#utility.yul\":13752:13758   */\n      dup3\n        /* \"#utility.yul\":13744:13750   */\n      dup3\n        /* \"#utility.yul\":13738:13742   */\n      dup6\n        /* \"#utility.yul\":13692:13759   */\n      tag_125\n      jump\t// in\n    tag_277:\n        /* \"#utility.yul\":13786:13787   */\n      0x00\n        /* \"#utility.yul\":13810:13814   */\n      0x20\n        /* \"#utility.yul\":13797:13814   */\n      swap1\n      pop\n        /* \"#utility.yul\":13842:13844   */\n      0x1f\n        /* \"#utility.yul\":13834:13840   */\n      dup4\n        /* \"#utility.yul\":13831:13845   */\n      gt\n        /* \"#utility.yul\":13859:13860   */\n      0x01\n        /* \"#utility.yul\":13854:14472   */\n      dup2\n      eq\n      tag_279\n      jumpi\n        /* \"#utility.yul\":14516:14517   */\n      0x00\n        /* \"#utility.yul\":14533:14539   */\n      dup5\n        /* \"#utility.yul\":14530:14607   */\n      iszero\n      tag_280\n      jumpi\n        /* \"#utility.yul\":14582:14591   */\n      dup3\n        /* \"#utility.yul\":14577:14580   */\n      dup8\n        /* \"#utility.yul\":14573:14592   */\n      add\n        /* \"#utility.yul\":14567:14593   */\n      mload\n        /* \"#utility.yul\":14558:14593   */\n      swap1\n      pop\n        /* \"#utility.yul\":14530:14607   */\n    tag_280:\n        /* \"#utility.yul\":14633:14700   */\n      tag_281\n        /* \"#utility.yul\":14693:14699   */\n      dup6\n        /* \"#utility.yul\":14686:14691   */\n      dup3\n        /* \"#utility.yul\":14633:14700   */\n      tag_128\n      jump\t// in\n    tag_281:\n        /* \"#utility.yul\":14627:14631   */\n      dup7\n        /* \"#utility.yul\":14620:14701   */\n      sstore\n        /* \"#utility.yul\":14489:14711   */\n      pop\n        /* \"#utility.yul\":13824:14711   */\n      jump(tag_278)\n        /* \"#utility.yul\":13854:14472   */\n    tag_279:\n        /* \"#utility.yul\":13906:13910   */\n      0x1f\n        /* \"#utility.yul\":13902:13911   */\n      not\n        /* \"#utility.yul\":13894:13900   */\n      dup5\n        /* \"#utility.yul\":13890:13912   */\n      and\n        /* \"#utility.yul\":13940:13977   */\n      tag_282\n        /* \"#utility.yul\":13972:13976   */\n      dup7\n        /* \"#utility.yul\":13940:13977   */\n      tag_114\n      jump\t// in\n    tag_282:\n        /* \"#utility.yul\":13999:14000   */\n      0x00\n        /* \"#utility.yul\":14013:14221   */\n    tag_283:\n        /* \"#utility.yul\":14027:14034   */\n      dup3\n        /* \"#utility.yul\":14024:14025   */\n      dup2\n        /* \"#utility.yul\":14021:14035   */\n      lt\n        /* \"#utility.yul\":14013:14221   */\n      iszero\n      tag_285\n      jumpi\n        /* \"#utility.yul\":14106:14115   */\n      dup5\n        /* \"#utility.yul\":14101:14104   */\n      dup10\n        /* \"#utility.yul\":14097:14116   */\n      add\n        /* \"#utility.yul\":14091:14117   */\n      mload\n        /* \"#utility.yul\":14083:14089   */\n      dup3\n        /* \"#utility.yul\":14076:14118   */\n      sstore\n        /* \"#utility.yul\":14157:14158   */\n      0x01\n        /* \"#utility.yul\":14149:14155   */\n      dup3\n        /* \"#utility.yul\":14145:14159   */\n      add\n        /* \"#utility.yul\":14135:14159   */\n      swap2\n      pop\n        /* \"#utility.yul\":14204:14206   */\n      0x20\n        /* \"#utility.yul\":14193:14202   */\n      dup6\n        /* \"#utility.yul\":14189:14207   */\n      add\n        /* \"#utility.yul\":14176:14207   */\n      swap5\n      pop\n        /* \"#utility.yul\":14050:14054   */\n      0x20\n        /* \"#utility.yul\":14047:14048   */\n      dup2\n        /* \"#utility.yul\":14043:14055   */\n      add\n        /* \"#utility.yul\":14038:14055   */\n      swap1\n      pop\n        /* \"#utility.yul\":14013:14221   */\n      jump(tag_283)\n    tag_285:\n        /* \"#utility.yul\":14249:14255   */\n      dup7\n        /* \"#utility.yul\":14240:14247   */\n      dup4\n        /* \"#utility.yul\":14237:14256   */\n      lt\n        /* \"#utility.yul\":14234:14413   */\n      iszero\n      tag_286\n      jumpi\n        /* \"#utility.yul\":14307:14316   */\n      dup5\n        /* \"#utility.yul\":14302:14305   */\n      dup10\n        /* \"#utility.yul\":14298:14317   */\n      add\n        /* \"#utility.yul\":14292:14318   */\n      mload\n        /* \"#utility.yul\":14350:14398   */\n      tag_287\n        /* \"#utility.yul\":14392:14396   */\n      0x1f\n        /* \"#utility.yul\":14384:14390   */\n      dup10\n        /* \"#utility.yul\":14380:14397   */\n      and\n        /* \"#utility.yul\":14369:14378   */\n      dup3\n        /* \"#utility.yul\":14350:14398   */\n      tag_127\n      jump\t// in\n    tag_287:\n        /* \"#utility.yul\":14342:14348   */\n      dup4\n        /* \"#utility.yul\":14335:14399   */\n      sstore\n        /* \"#utility.yul\":14257:14413   */\n      pop\n        /* \"#utility.yul\":14234:14413   */\n    tag_286:\n        /* \"#utility.yul\":14459:14460   */\n      0x01\n        /* \"#utility.yul\":14455:14456   */\n      0x02\n        /* \"#utility.yul\":14447:14453   */\n      dup9\n        /* \"#utility.yul\":14443:14457   */\n      mul\n        /* \"#utility.yul\":14439:14461   */\n      add\n        /* \"#utility.yul\":14433:14437   */\n      dup9\n        /* \"#utility.yul\":14426:14462   */\n      sstore\n        /* \"#utility.yul\":13861:14472   */\n      pop\n      pop\n      pop\n        /* \"#utility.yul\":13824:14711   */\n    tag_278:\n      pop\n        /* \"#utility.yul\":13414:14717   */\n      pop\n      pop\n      pop\n        /* \"#utility.yul\":13322:14717   */\n      pop\n      pop\n      jump\t// out\n\n    auxdata: 0xa264697066735822122037c4b2801238b7b1a4967b37c993d8c1dd39b012428b8f7144d54267b4e7cafa64736f6c63430008120033\n}\n",
				"bytecode": {
					"linkReferences": {},
					"object": "608060405234801561001057600080fd5b50610d8e806100206000396000f3fe608060405234801561001057600080fd5b506004361061004c5760003560e01c80631f22e5f9146100515780636e3c67381461006d578063a0cc2a5614610089578063c33926cb146100a5575b600080fd5b61006b600480360381019061006691906105e1565b6100c3565b005b61008760048036038101906100829190610621565b61018a565b005b6100a3600480360381019061009e9190610794565b610251565b005b6100ad610344565b6040516100ba91906109b2565b60405180910390f35b60008080549050905060005b818110156101845783600082815481106100ec576100eb6109d4565b5b90600052602060002090600302016000015403610171578260008281548110610118576101176109d4565b5b906000526020600020906003020160020160006101000a81548160ff0219169083151502179055507fa5d3043a98c72ee40daa2f322bf6b4a03870dacfd742e05b8e906f606a1993f460405160405180910390a1610184565b808061017c90610a32565b9150506100cf565b50505050565b60008080549050905060005b8181101561024c5782600082815481106101b3576101b26109d4565b5b90600052602060002090600302016000015403610239576001600082815481106101e0576101df6109d4565b5b906000526020600020906003020160020160016101000a81548160ff0219169083151502179055507f9218efb8b01b35364f271f424251d4ac0ee6008fc366226e9c2338bd15ebf61660405160405180910390a161024c565b808061024490610a32565b915050610196565b505050565b60008080549050905060006040518060800160405280838152602001858152602001841515815260200160001515815250905060008190806001815401808255809150506001900390600052602060002090600302016000909190919091506000820151816000015560208201518160010190816102cf9190610c86565b5060408201518160020160006101000a81548160ff02191690831515021790555060608201518160020160016101000a81548160ff02191690831515021790555050507f3f6c5d91b4e4ceb6d3b01b9cd23a15af4bef70334b78e706c2543ea8daaf3c1360405160405180910390a150505050565b606060008080549050905060008167ffffffffffffffff81111561036b5761036a610669565b5b6040519080825280602002602001820160405280156103a457816020015b610391610533565b8152602001906001900390816103895790505b5090506000805b8381101561052957600081815481106103c7576103c66109d4565b5b906000526020600020906003020160020160019054906101000a900460ff1661051657600081815481106103fe576103fd6109d4565b5b90600052602060002090600302016040518060800160405290816000820154815260200160018201805461043190610aa9565b80601f016020809104026020016040519081016040528092919081815260200182805461045d90610aa9565b80156104aa5780601f1061047f576101008083540402835291602001916104aa565b820191906000526020600020905b81548152906001019060200180831161048d57829003601f168201915b505050505081526020016002820160009054906101000a900460ff161515151581526020016002820160019054906101000a900460ff1615151515815250508383815181106104fc576104fb6109d4565b5b6020026020010181905250818061051290610a32565b9250505b808061052190610a32565b9150506103ab565b5081935050505090565b604051806080016040528060008152602001606081526020016000151581526020016000151581525090565b6000604051905090565b600080fd5b600080fd5b6000819050919050565b61058681610573565b811461059157600080fd5b50565b6000813590506105a38161057d565b92915050565b60008115159050919050565b6105be816105a9565b81146105c957600080fd5b50565b6000813590506105db816105b5565b92915050565b600080604083850312156105f8576105f7610569565b5b600061060685828601610594565b9250506020610617858286016105cc565b9150509250929050565b60006020828403121561063757610636610569565b5b600061064584828501610594565b91505092915050565b600080fd5b600080fd5b6000601f19601f8301169050919050565b7f4e487b7100000000000000000000000000000000000000000000000000000000600052604160045260246000fd5b6106a182610658565b810181811067ffffffffffffffff821117156106c0576106bf610669565b5b80604052505050565b60006106d361055f565b90506106df8282610698565b919050565b600067ffffffffffffffff8211156106ff576106fe610669565b5b61070882610658565b9050602081019050919050565b82818337600083830152505050565b6000610737610732846106e4565b6106c9565b90508281526020810184848401111561075357610752610653565b5b61075e848285610715565b509392505050565b600082601f83011261077b5761077a61064e565b5b813561078b848260208601610724565b91505092915050565b600080604083850312156107ab576107aa610569565b5b600083013567ffffffffffffffff8111156107c9576107c861056e565b5b6107d585828601610766565b92505060206107e6858286016105cc565b9150509250929050565b600081519050919050565b600082825260208201905092915050565b6000819050602082019050919050565b61082581610573565b82525050565b600081519050919050565b600082825260208201905092915050565b60005b8381101561086557808201518184015260208101905061084a565b60008484015250505050565b600061087c8261082b565b6108868185610836565b9350610896818560208601610847565b61089f81610658565b840191505092915050565b6108b3816105a9565b82525050565b60006080830160008301516108d1600086018261081c565b50602083015184820360208601526108e98282610871565b91505060408301516108fe60408601826108aa565b50606083015161091160608601826108aa565b508091505092915050565b600061092883836108b9565b905092915050565b6000602082019050919050565b6000610948826107f0565b61095281856107fb565b9350836020820285016109648561080c565b8060005b858110156109a05784840389528151610981858261091c565b945061098c83610930565b925060208a01995050600181019050610968565b50829750879550505050505092915050565b600060208201905081810360008301526109cc818461093d565b905092915050565b7f4e487b7100000000000000000000000000000000000000000000000000000000600052603260045260246000fd5b7f4e487b7100000000000000000000000000000000000000000000000000000000600052601160045260246000fd5b6000610a3d82610573565b91507fffffffffffffffffffffffffffffffffffffffffffffffffffffffffffffffff8203610a6f57610a6e610a03565b5b600182019050919050565b7f4e487b7100000000000000000000000000000000000000000000000000000000600052602260045260246000fd5b60006002820490506001821680610ac157607f821691505b602082108103610ad457610ad3610a7a565b5b50919050565b60008190508160005260206000209050919050565b60006020601f8301049050919050565b600082821b905092915050565b600060088302610b3c7fffffffffffffffffffffffffffffffffffffffffffffffffffffffffffffffff82610aff565b610b468683610aff565b95508019841693508086168417925050509392505050565b6000819050919050565b6000610b83610b7e610b7984610573565b610b5e565b610573565b9050919050565b6000819050919050565b610b9d83610b68565b610bb1610ba982610b8a565b848454610b0c565b825550505050565b600090565b610bc6610bb9565b610bd1818484610b94565b505050565b5b81811015610bf557610bea600082610bbe565b600181019050610bd7565b5050565b601f821115610c3a57610c0b81610ada565b610c1484610aef565b81016020851015610c23578190505b610c37610c2f85610aef565b830182610bd6565b50505b505050565b600082821c905092915050565b6000610c5d60001984600802610c3f565b1980831691505092915050565b6000610c768383610c4c565b9150826002028217905092915050565b610c8f8261082b565b67ffffffffffffffff811115610ca857610ca7610669565b5b610cb28254610aa9565b610cbd828285610bf9565b600060209050601f831160018114610cf05760008415610cde578287015190505b610ce88582610c6a565b865550610d50565b601f198416610cfe86610ada565b60005b82811015610d2657848901518255600182019150602085019450602081019050610d01565b86831015610d435784890151610d3f601f891682610c4c565b8355505b6001600288020188555050505b50505050505056fea264697066735822122037c4b2801238b7b1a4967b37c993d8c1dd39b012428b8f7144d54267b4e7cafa64736f6c63430008120033",
					"opcodes": "PUSH1 0x80 PUSH1 0x40 MSTORE CALLVALUE DUP1 ISZERO PUSH2 0x10 JUMPI PUSH1 0x0 DUP1 REVERT JUMPDEST POP PUSH2 0xD8E DUP1 PUSH2 0x20 PUSH1 0x0 CODECOPY PUSH1 0x0 RETURN INVALID PUSH1 0x80 PUSH1 0x40 MSTORE CALLVALUE DUP1 ISZERO PUSH2 0x10 JUMPI PUSH1 0x0 DUP1 REVERT JUMPDEST POP PUSH1 0x4 CALLDATASIZE LT PUSH2 0x4C JUMPI PUSH1 0x0 CALLDATALOAD PUSH1 0xE0 SHR DUP1 PUSH4 0x1F22E5F9 EQ PUSH2 0x51 JUMPI DUP1 PUSH4 0x6E3C6738 EQ PUSH2 0x6D JUMPI DUP1 PUSH4 0xA0CC2A56 EQ PUSH2 0x89 JUMPI DUP1 PUSH4 0xC33926CB EQ PUSH2 0xA5 JUMPI JUMPDEST PUSH1 0x0 DUP1 REVERT JUMPDEST PUSH2 0x6B PUSH1 0x4 DUP1 CALLDATASIZE SUB DUP2 ADD SWAP1 PUSH2 0x66 SWAP2 SWAP1 PUSH2 0x5E1 JUMP JUMPDEST PUSH2 0xC3 JUMP JUMPDEST STOP JUMPDEST PUSH2 0x87 PUSH1 0x4 DUP1 CALLDATASIZE SUB DUP2 ADD SWAP1 PUSH2 0x82 SWAP2 SWAP1 PUSH2 0x621 JUMP JUMPDEST PUSH2 0x18A JUMP JUMPDEST STOP JUMPDEST PUSH2 0xA3 PUSH1 0x4 DUP1 CALLDATASIZE SUB DUP2 ADD SWAP1 PUSH2 0x9E SWAP2 SWAP1 PUSH2 0x794 JUMP JUMPDEST PUSH2 0x251 JUMP JUMPDEST STOP JUMPDEST PUSH2 0xAD PUSH2 0x344 JUMP JUMPDEST PUSH1 0x40 MLOAD PUSH2 0xBA SWAP2 SWAP1 PUSH2 0x9B2 JUMP JUMPDEST PUSH1 0x40 MLOAD DUP1 SWAP2 SUB SWAP1 RETURN JUMPDEST PUSH1 0x0 DUP1 DUP1 SLOAD SWAP1 POP SWAP1 POP PUSH1 0x0 JUMPDEST DUP2 DUP2 LT ISZERO PUSH2 0x184 JUMPI DUP4 PUSH1 0x0 DUP3 DUP2 SLOAD DUP2 LT PUSH2 0xEC JUMPI PUSH2 0xEB PUSH2 0x9D4 JUMP JUMPDEST JUMPDEST SWAP1 PUSH1 0x0 MSTORE PUSH1 0x20 PUSH1 0x0 KECCAK256 SWAP1 PUSH1 0x3 MUL ADD PUSH1 0x0 ADD SLOAD SUB PUSH2 0x171 JUMPI DUP3 PUSH1 0x0 DUP3 DUP2 SLOAD DUP2 LT PUSH2 0x118 JUMPI PUSH2 0x117 PUSH2 0x9D4 JUMP JUMPDEST JUMPDEST SWAP1 PUSH1 0x0 MSTORE PUSH1 0x20 PUSH1 0x0 KECCAK256 SWAP1 PUSH1 0x3 MUL ADD PUSH1 0x2 ADD PUSH1 0x0 PUSH2 0x100 EXP DUP2 SLOAD DUP2 PUSH1 0xFF MUL NOT AND SWAP1 DUP4 ISZERO ISZERO MUL OR SWAP1 SSTORE POP PUSH32 0xA5D3043A98C72EE40DAA2F322BF6B4A03870DACFD742E05B8E906F606A1993F4 PUSH1 0x40 MLOAD PUSH1 0x40 MLOAD DUP1 SWAP2 SUB SWAP1 LOG1 PUSH2 0x184 JUMP JUMPDEST DUP1 DUP1 PUSH2 0x17C SWAP1 PUSH2 0xA32 JUMP JUMPDEST SWAP2 POP POP PUSH2 0xCF JUMP JUMPDEST POP POP POP POP JUMP JUMPDEST PUSH1 0x0 DUP1 DUP1 SLOAD SWAP1 POP SWAP1 POP PUSH1 0x0 JUMPDEST DUP2 DUP2 LT ISZERO PUSH2 0x24C JUMPI DUP3 PUSH1 0x0 DUP3 DUP2 SLOAD DUP2 LT PUSH2 0x1B3 JUMPI PUSH2 0x1B2 PUSH2 0x9D4 JUMP JUMPDEST JUMPDEST SWAP1 PUSH1 0x0 MSTORE PUSH1 0x20 PUSH1 0x0 KECCAK256 SWAP1 PUSH1 0x3 MUL ADD PUSH1 0x0 ADD SLOAD SUB PUSH2 0x239 JUMPI PUSH1 0x1 PUSH1 0x0 DUP3 DUP2 SLOAD DUP2 LT PUSH2 0x1E0 JUMPI PUSH2 0x1DF PUSH2 0x9D4 JUMP JUMPDEST JUMPDEST SWAP1 PUSH1 0x0 MSTORE PUSH1 0x20 PUSH1 0x0 KECCAK256 SWAP1 PUSH1 0x3 MUL ADD PUSH1 0x2 ADD PUSH1 0x1 PUSH2 0x100 EXP DUP2 SLOAD DUP2 PUSH1 0xFF MUL NOT AND SWAP1 DUP4 ISZERO ISZERO MUL OR SWAP1 SSTORE POP PUSH32 0x9218EFB8B01B35364F271F424251D4AC0EE6008FC366226E9C2338BD15EBF616 PUSH1 0x40 MLOAD PUSH1 0x40 MLOAD DUP1 SWAP2 SUB SWAP1 LOG1 PUSH2 0x24C JUMP JUMPDEST DUP1 DUP1 PUSH2 0x244 SWAP1 PUSH2 0xA32 JUMP JUMPDEST SWAP2 POP POP PUSH2 0x196 JUMP JUMPDEST POP POP POP JUMP JUMPDEST PUSH1 0x0 DUP1 DUP1 SLOAD SWAP1 POP SWAP1 POP PUSH1 0x0 PUSH1 0x40 MLOAD DUP1 PUSH1 0x80 ADD PUSH1 0x40 MSTORE DUP1 DUP4 DUP2 MSTORE PUSH1 0x20 ADD DUP6 DUP2 MSTORE PUSH1 0x20 ADD DUP5 ISZERO ISZERO DUP2 MSTORE PUSH1 0x20 ADD PUSH1 0x0 ISZERO ISZERO DUP2 MSTORE POP SWAP1 POP PUSH1 0x0 DUP2 SWAP1 DUP1 PUSH1 0x1 DUP2 SLOAD ADD DUP1 DUP3 SSTORE DUP1 SWAP2 POP POP PUSH1 0x1 SWAP1 SUB SWAP1 PUSH1 0x0 MSTORE PUSH1 0x20 PUSH1 0x0 KECCAK256 SWAP1 PUSH1 0x3 MUL ADD PUSH1 0x0 SWAP1 SWAP2 SWAP1 SWAP2 SWAP1 SWAP2 POP PUSH1 0x0 DUP3 ADD MLOAD DUP2 PUSH1 0x0 ADD SSTORE PUSH1 0x20 DUP3 ADD MLOAD DUP2 PUSH1 0x1 ADD SWAP1 DUP2 PUSH2 0x2CF SWAP2 SWAP1 PUSH2 0xC86 JUMP JUMPDEST POP PUSH1 0x40 DUP3 ADD MLOAD DUP2 PUSH1 0x2 ADD PUSH1 0x0 PUSH2 0x100 EXP DUP2 SLOAD DUP2 PUSH1 0xFF MUL NOT AND SWAP1 DUP4 ISZERO ISZERO MUL OR SWAP1 SSTORE POP PUSH1 0x60 DUP3 ADD MLOAD DUP2 PUSH1 0x2 ADD PUSH1 0x1 PUSH2 0x100 EXP DUP2 SLOAD DUP2 PUSH1 0xFF MUL NOT AND SWAP1 DUP4 ISZERO ISZERO MUL OR SWAP1 SSTORE POP POP POP PUSH32 0x3F6C5D91B4E4CEB6D3B01B9CD23A15AF4BEF70334B78E706C2543EA8DAAF3C13 PUSH1 0x40 MLOAD PUSH1 0x40 MLOAD DUP1 SWAP2 SUB SWAP1 LOG1 POP POP POP POP JUMP JUMPDEST PUSH1 0x60 PUSH1 0x0 DUP1 DUP1 SLOAD SWAP1 POP SWAP1 POP PUSH1 0x0 DUP2 PUSH8 0xFFFFFFFFFFFFFFFF DUP2 GT ISZERO PUSH2 0x36B JUMPI PUSH2 0x36A PUSH2 0x669 JUMP JUMPDEST JUMPDEST PUSH1 0x40 MLOAD SWAP1 DUP1 DUP3 MSTORE DUP1 PUSH1 0x20 MUL PUSH1 0x20 ADD DUP3 ADD PUSH1 0x40 MSTORE DUP1 ISZERO PUSH2 0x3A4 JUMPI DUP2 PUSH1 0x20 ADD JUMPDEST PUSH2 0x391 PUSH2 0x533 JUMP JUMPDEST DUP2 MSTORE PUSH1 0x20 ADD SWAP1 PUSH1 0x1 SWAP1 SUB SWAP1 DUP2 PUSH2 0x389 JUMPI SWAP1 POP JUMPDEST POP SWAP1 POP PUSH1 0x0 DUP1 JUMPDEST DUP4 DUP2 LT ISZERO PUSH2 0x529 JUMPI PUSH1 0x0 DUP2 DUP2 SLOAD DUP2 LT PUSH2 0x3C7 JUMPI PUSH2 0x3C6 PUSH2 0x9D4 JUMP JUMPDEST JUMPDEST SWAP1 PUSH1 0x0 MSTORE PUSH1 0x20 PUSH1 0x0 KECCAK256 SWAP1 PUSH1 0x3 MUL ADD PUSH1 0x2 ADD PUSH1 0x1 SWAP1 SLOAD SWAP1 PUSH2 0x100 EXP SWAP1 DIV PUSH1 0xFF AND PUSH2 0x516 JUMPI PUSH1 0x0 DUP2 DUP2 SLOAD DUP2 LT PUSH2 0x3FE JUMPI PUSH2 0x3FD PUSH2 0x9D4 JUMP JUMPDEST JUMPDEST SWAP1 PUSH1 0x0 MSTORE PUSH1 0x20 PUSH1 0x0 KECCAK256 SWAP1 PUSH1 0x3 MUL ADD PUSH1 0x40 MLOAD DUP1 PUSH1 0x80 ADD PUSH1 0x40 MSTORE SWAP1 DUP2 PUSH1 0x0 DUP3 ADD SLOAD DUP2 MSTORE PUSH1 0x20 ADD PUSH1 0x1 DUP3 ADD DUP1 SLOAD PUSH2 0x431 SWAP1 PUSH2 0xAA9 JUMP JUMPDEST DUP1 PUSH1 0x1F ADD PUSH1 0x20 DUP1 SWAP2 DIV MUL PUSH1 0x20 ADD PUSH1 0x40 MLOAD SWAP1 DUP2 ADD PUSH1 0x40 MSTORE DUP1 SWAP3 SWAP2 SWAP1 DUP2 DUP2 MSTORE PUSH1 0x20 ADD DUP3 DUP1 SLOAD PUSH2 0x45D SWAP1 PUSH2 0xAA9 JUMP JUMPDEST DUP1 ISZERO PUSH2 0x4AA JUMPI DUP1 PUSH1 0x1F LT PUSH2 0x47F JUMPI PUSH2 0x100 DUP1 DUP4 SLOAD DIV MUL DUP4 MSTORE SWAP2 PUSH1 0x20 ADD SWAP2 PUSH2 0x4AA JUMP JUMPDEST DUP3 ADD SWAP2 SWAP1 PUSH1 0x0 MSTORE PUSH1 0x20 PUSH1 0x0 KECCAK256 SWAP1 JUMPDEST DUP2 SLOAD DUP2 MSTORE SWAP1 PUSH1 0x1 ADD SWAP1 PUSH1 0x20 ADD DUP1 DUP4 GT PUSH2 0x48D JUMPI DUP3 SWAP1 SUB PUSH1 0x1F AND DUP3 ADD SWAP2 JUMPDEST POP POP POP POP POP DUP2 MSTORE PUSH1 0x20 ADD PUSH1 0x2 DUP3 ADD PUSH1 0x0 SWAP1 SLOAD SWAP1 PUSH2 0x100 EXP SWAP1 DIV PUSH1 0xFF AND ISZERO ISZERO ISZERO ISZERO DUP2 MSTORE PUSH1 0x20 ADD PUSH1 0x2 DUP3 ADD PUSH1 0x1 SWAP1 SLOAD SWAP1 PUSH2 0x100 EXP SWAP1 DIV PUSH1 0xFF AND ISZERO ISZERO ISZERO ISZERO DUP2 MSTORE POP POP DUP4 DUP4 DUP2 MLOAD DUP2 LT PUSH2 0x4FC JUMPI PUSH2 0x4FB PUSH2 0x9D4 JUMP JUMPDEST JUMPDEST PUSH1 0x20 MUL PUSH1 0x20 ADD ADD DUP2 SWAP1 MSTORE POP DUP2 DUP1 PUSH2 0x512 SWAP1 PUSH2 0xA32 JUMP JUMPDEST SWAP3 POP POP JUMPDEST DUP1 DUP1 PUSH2 0x521 SWAP1 PUSH2 0xA32 JUMP JUMPDEST SWAP2 POP POP PUSH2 0x3AB JUMP JUMPDEST POP DUP2 SWAP4 POP POP POP POP SWAP1 JUMP JUMPDEST PUSH1 0x40 MLOAD DUP1 PUSH1 0x80 ADD PUSH1 0x40 MSTORE DUP1 PUSH1 0x0 DUP2 MSTORE PUSH1 0x20 ADD PUSH1 0x60 DUP2 MSTORE PUSH1 0x20 ADD PUSH1 0x0 ISZERO ISZERO DUP2 MSTORE PUSH1 0x20 ADD PUSH1 0x0 ISZERO ISZERO DUP2 MSTORE POP SWAP1 JUMP JUMPDEST PUSH1 0x0 PUSH1 0x40 MLOAD SWAP1 POP SWAP1 JUMP JUMPDEST PUSH1 0x0 DUP1 REVERT JUMPDEST PUSH1 0x0 DUP1 REVERT JUMPDEST PUSH1 0x0 DUP2 SWAP1 POP SWAP2 SWAP1 POP JUMP JUMPDEST PUSH2 0x586 DUP2 PUSH2 0x573 JUMP JUMPDEST DUP2 EQ PUSH2 0x591 JUMPI PUSH1 0x0 DUP1 REVERT JUMPDEST POP JUMP JUMPDEST PUSH1 0x0 DUP2 CALLDATALOAD SWAP1 POP PUSH2 0x5A3 DUP2 PUSH2 0x57D JUMP JUMPDEST SWAP3 SWAP2 POP POP JUMP JUMPDEST PUSH1 0x0 DUP2 ISZERO ISZERO SWAP1 POP SWAP2 SWAP1 POP JUMP JUMPDEST PUSH2 0x5BE DUP2 PUSH2 0x5A9 JUMP JUMPDEST DUP2 EQ PUSH2 0x5C9 JUMPI PUSH1 0x0 DUP1 REVERT JUMPDEST POP JUMP JUMPDEST PUSH1 0x0 DUP2 CALLDATALOAD SWAP1 POP PUSH2 0x5DB DUP2 PUSH2 0x5B5 JUMP JUMPDEST SWAP3 SWAP2 POP POP JUMP JUMPDEST PUSH1 0x0 DUP1 PUSH1 0x40 DUP4 DUP6 SUB SLT ISZERO PUSH2 0x5F8 JUMPI PUSH2 0x5F7 PUSH2 0x569 JUMP JUMPDEST JUMPDEST PUSH1 0x0 PUSH2 0x606 DUP6 DUP3 DUP7 ADD PUSH2 0x594 JUMP JUMPDEST SWAP3 POP POP PUSH1 0x20 PUSH2 0x617 DUP6 DUP3 DUP7 ADD PUSH2 0x5CC JUMP JUMPDEST SWAP2 POP POP SWAP3 POP SWAP3 SWAP1 POP JUMP JUMPDEST PUSH1 0x0 PUSH1 0x20 DUP3 DUP5 SUB SLT ISZERO PUSH2 0x637 JUMPI PUSH2 0x636 PUSH2 0x569 JUMP JUMPDEST JUMPDEST PUSH1 0x0 PUSH2 0x645 DUP5 DUP3 DUP6 ADD PUSH2 0x594 JUMP JUMPDEST SWAP2 POP POP SWAP3 SWAP2 POP POP JUMP JUMPDEST PUSH1 0x0 DUP1 REVERT JUMPDEST PUSH1 0x0 DUP1 REVERT JUMPDEST PUSH1 0x0 PUSH1 0x1F NOT PUSH1 0x1F DUP4 ADD AND SWAP1 POP SWAP2 SWAP1 POP JUMP JUMPDEST PUSH32 0x4E487B7100000000000000000000000000000000000000000000000000000000 PUSH1 0x0 MSTORE PUSH1 0x41 PUSH1 0x4 MSTORE PUSH1 0x24 PUSH1 0x0 REVERT JUMPDEST PUSH2 0x6A1 DUP3 PUSH2 0x658 JUMP JUMPDEST DUP2 ADD DUP2 DUP2 LT PUSH8 0xFFFFFFFFFFFFFFFF DUP3 GT OR ISZERO PUSH2 0x6C0 JUMPI PUSH2 0x6BF PUSH2 0x669 JUMP JUMPDEST JUMPDEST DUP1 PUSH1 0x40 MSTORE POP POP POP JUMP JUMPDEST PUSH1 0x0 PUSH2 0x6D3 PUSH2 0x55F JUMP JUMPDEST SWAP1 POP PUSH2 0x6DF DUP3 DUP3 PUSH2 0x698 JUMP JUMPDEST SWAP2 SWAP1 POP JUMP JUMPDEST PUSH1 0x0 PUSH8 0xFFFFFFFFFFFFFFFF DUP3 GT ISZERO PUSH2 0x6FF JUMPI PUSH2 0x6FE PUSH2 0x669 JUMP JUMPDEST JUMPDEST PUSH2 0x708 DUP3 PUSH2 0x658 JUMP JUMPDEST SWAP1 POP PUSH1 0x20 DUP2 ADD SWAP1 POP SWAP2 SWAP1 POP JUMP JUMPDEST DUP3 DUP2 DUP4 CALLDATACOPY PUSH1 0x0 DUP4 DUP4 ADD MSTORE POP POP POP JUMP JUMPDEST PUSH1 0x0 PUSH2 0x737 PUSH2 0x732 DUP5 PUSH2 0x6E4 JUMP JUMPDEST PUSH2 0x6C9 JUMP JUMPDEST SWAP1 POP DUP3 DUP2 MSTORE PUSH1 0x20 DUP2 ADD DUP5 DUP5 DUP5 ADD GT ISZERO PUSH2 0x753 JUMPI PUSH2 0x752 PUSH2 0x653 JUMP JUMPDEST JUMPDEST PUSH2 0x75E DUP5 DUP3 DUP6 PUSH2 0x715 JUMP JUMPDEST POP SWAP4 SWAP3 POP POP POP JUMP JUMPDEST PUSH1 0x0 DUP3 PUSH1 0x1F DUP4 ADD SLT PUSH2 0x77B JUMPI PUSH2 0x77A PUSH2 0x64E JUMP JUMPDEST JUMPDEST DUP2 CALLDATALOAD PUSH2 0x78B DUP5 DUP3 PUSH1 0x20 DUP7 ADD PUSH2 0x724 JUMP JUMPDEST SWAP2 POP POP SWAP3 SWAP2 POP POP JUMP JUMPDEST PUSH1 0x0 DUP1 PUSH1 0x40 DUP4 DUP6 SUB SLT ISZERO PUSH2 0x7AB JUMPI PUSH2 0x7AA PUSH2 0x569 JUMP JUMPDEST JUMPDEST PUSH1 0x0 DUP4 ADD CALLDATALOAD PUSH8 0xFFFFFFFFFFFFFFFF DUP2 GT ISZERO PUSH2 0x7C9 JUMPI PUSH2 0x7C8 PUSH2 0x56E JUMP JUMPDEST JUMPDEST PUSH2 0x7D5 DUP6 DUP3 DUP7 ADD PUSH2 0x766 JUMP JUMPDEST SWAP3 POP POP PUSH1 0x20 PUSH2 0x7E6 DUP6 DUP3 DUP7 ADD PUSH2 0x5CC JUMP JUMPDEST SWAP2 POP POP SWAP3 POP SWAP3 SWAP1 POP JUMP JUMPDEST PUSH1 0x0 DUP2 MLOAD SWAP1 POP SWAP2 SWAP1 POP JUMP JUMPDEST PUSH1 0x0 DUP3 DUP3 MSTORE PUSH1 0x20 DUP3 ADD SWAP1 POP SWAP3 SWAP2 POP POP JUMP JUMPDEST PUSH1 0x0 DUP2 SWAP1 POP PUSH1 0x20 DUP3 ADD SWAP1 POP SWAP2 SWAP1 POP JUMP JUMPDEST PUSH2 0x825 DUP2 PUSH2 0x573 JUMP JUMPDEST DUP3 MSTORE POP POP JUMP JUMPDEST PUSH1 0x0 DUP2 MLOAD SWAP1 POP SWAP2 SWAP1 POP JUMP JUMPDEST PUSH1 0x0 DUP3 DUP3 MSTORE PUSH1 0x20 DUP3 ADD SWAP1 POP SWAP3 SWAP2 POP POP JUMP JUMPDEST PUSH1 0x0 JUMPDEST DUP4 DUP2 LT ISZERO PUSH2 0x865 JUMPI DUP1 DUP3 ADD MLOAD DUP2 DUP5 ADD MSTORE PUSH1 0x20 DUP2 ADD SWAP1 POP PUSH2 0x84A JUMP JUMPDEST PUSH1 0x0 DUP5 DUP5 ADD MSTORE POP POP POP POP JUMP JUMPDEST PUSH1 0x0 PUSH2 0x87C DUP3 PUSH2 0x82B JUMP JUMPDEST PUSH2 0x886 DUP2 DUP6 PUSH2 0x836 JUMP JUMPDEST SWAP4 POP PUSH2 0x896 DUP2 DUP6 PUSH1 0x20 DUP7 ADD PUSH2 0x847 JUMP JUMPDEST PUSH2 0x89F DUP2 PUSH2 0x658 JUMP JUMPDEST DUP5 ADD SWAP2 POP POP SWAP3 SWAP2 POP POP JUMP JUMPDEST PUSH2 0x8B3 DUP2 PUSH2 0x5A9 JUMP JUMPDEST DUP3 MSTORE POP POP JUMP JUMPDEST PUSH1 0x0 PUSH1 0x80 DUP4 ADD PUSH1 0x0 DUP4 ADD MLOAD PUSH2 0x8D1 PUSH1 0x0 DUP7 ADD DUP3 PUSH2 0x81C JUMP JUMPDEST POP PUSH1 0x20 DUP4 ADD MLOAD DUP5 DUP3 SUB PUSH1 0x20 DUP7 ADD MSTORE PUSH2 0x8E9 DUP3 DUP3 PUSH2 0x871 JUMP JUMPDEST SWAP2 POP POP PUSH1 0x40 DUP4 ADD MLOAD PUSH2 0x8FE PUSH1 0x40 DUP7 ADD DUP3 PUSH2 0x8AA JUMP JUMPDEST POP PUSH1 0x60 DUP4 ADD MLOAD PUSH2 0x911 PUSH1 0x60 DUP7 ADD DUP3 PUSH2 0x8AA JUMP JUMPDEST POP DUP1 SWAP2 POP POP SWAP3 SWAP2 POP POP JUMP JUMPDEST PUSH1 0x0 PUSH2 0x928 DUP4 DUP4 PUSH2 0x8B9 JUMP JUMPDEST SWAP1 POP SWAP3 SWAP2 POP POP JUMP JUMPDEST PUSH1 0x0 PUSH1 0x20 DUP3 ADD SWAP1 POP SWAP2 SWAP1 POP JUMP JUMPDEST PUSH1 0x0 PUSH2 0x948 DUP3 PUSH2 0x7F0 JUMP JUMPDEST PUSH2 0x952 DUP2 DUP6 PUSH2 0x7FB JUMP JUMPDEST SWAP4 POP DUP4 PUSH1 0x20 DUP3 MUL DUP6 ADD PUSH2 0x964 DUP6 PUSH2 0x80C JUMP JUMPDEST DUP1 PUSH1 0x0 JUMPDEST DUP6 DUP2 LT ISZERO PUSH2 0x9A0 JUMPI DUP5 DUP5 SUB DUP10 MSTORE DUP2 MLOAD PUSH2 0x981 DUP6 DUP3 PUSH2 0x91C JUMP JUMPDEST SWAP5 POP PUSH2 0x98C DUP4 PUSH2 0x930 JUMP JUMPDEST SWAP3 POP PUSH1 0x20 DUP11 ADD SWAP10 POP POP PUSH1 0x1 DUP2 ADD SWAP1 POP PUSH2 0x968 JUMP JUMPDEST POP DUP3 SWAP8 POP DUP8 SWAP6 POP POP POP POP POP POP SWAP3 SWAP2 POP POP JUMP JUMPDEST PUSH1 0x0 PUSH1 0x20 DUP3 ADD SWAP1 POP DUP2 DUP2 SUB PUSH1 0x0 DUP4 ADD MSTORE PUSH2 0x9CC DUP2 DUP5 PUSH2 0x93D JUMP JUMPDEST SWAP1 POP SWAP3 SWAP2 POP POP JUMP JUMPDEST PUSH32 0x4E487B7100000000000000000000000000000000000000000000000000000000 PUSH1 0x0 MSTORE PUSH1 0x32 PUSH1 0x4 MSTORE PUSH1 0x24 PUSH1 0x0 REVERT JUMPDEST PUSH32 0x4E487B7100000000000000000000000000000000000000000000000000000000 PUSH1 0x0 MSTORE PUSH1 0x11 PUSH1 0x4 MSTORE PUSH1 0x24 PUSH1 0x0 REVERT JUMPDEST PUSH1 0x0 PUSH2 0xA3D DUP3 PUSH2 0x573 JUMP JUMPDEST SWAP2 POP PUSH32 0xFFFFFFFFFFFFFFFFFFFFFFFFFFFFFFFFFFFFFFFFFFFFFFFFFFFFFFFFFFFFFFFF DUP3 SUB PUSH2 0xA6F JUMPI PUSH2 0xA6E PUSH2 0xA03 JUMP JUMPDEST JUMPDEST PUSH1 0x1 DUP3 ADD SWAP1 POP SWAP2 SWAP1 POP JUMP JUMPDEST PUSH32 0x4E487B7100000000000000000000000000000000000000000000000000000000 PUSH1 0x0 MSTORE PUSH1 0x22 PUSH1 0x4 MSTORE PUSH1 0x24 PUSH1 0x0 REVERT JUMPDEST PUSH1 0x0 PUSH1 0x2 DUP3 DIV SWAP1 POP PUSH1 0x1 DUP3 AND DUP1 PUSH2 0xAC1 JUMPI PUSH1 0x7F DUP3 AND SWAP2 POP JUMPDEST PUSH1 0x20 DUP3 LT DUP2 SUB PUSH2 0xAD4 JUMPI PUSH2 0xAD3 PUSH2 0xA7A JUMP JUMPDEST JUMPDEST POP SWAP2 SWAP1 POP JUMP JUMPDEST PUSH1 0x0 DUP2 SWAP1 POP DUP2 PUSH1 0x0 MSTORE PUSH1 0x20 PUSH1 0x0 KECCAK256 SWAP1 POP SWAP2 SWAP1 POP JUMP JUMPDEST PUSH1 0x0 PUSH1 0x20 PUSH1 0x1F DUP4 ADD DIV SWAP1 POP SWAP2 SWAP1 POP JUMP JUMPDEST PUSH1 0x0 DUP3 DUP3 SHL SWAP1 POP SWAP3 SWAP2 POP POP JUMP JUMPDEST PUSH1 0x0 PUSH1 0x8 DUP4 MUL PUSH2 0xB3C PUSH32 0xFFFFFFFFFFFFFFFFFFFFFFFFFFFFFFFFFFFFFFFFFFFFFFFFFFFFFFFFFFFFFFFF DUP3 PUSH2 0xAFF JUMP JUMPDEST PUSH2 0xB46 DUP7 DUP4 PUSH2 0xAFF JUMP JUMPDEST SWAP6 POP DUP1 NOT DUP5 AND SWAP4 POP DUP1 DUP7 AND DUP5 OR SWAP3 POP POP POP SWAP4 SWAP3 POP POP POP JUMP JUMPDEST PUSH1 0x0 DUP2 SWAP1 POP SWAP2 SWAP1 POP JUMP JUMPDEST PUSH1 0x0 PUSH2 0xB83 PUSH2 0xB7E PUSH2 0xB79 DUP5 PUSH2 0x573 JUMP JUMPDEST PUSH2 0xB5E JUMP JUMPDEST PUSH2 0x573 JUMP JUMPDEST SWAP1 POP SWAP2 SWAP1 POP JUMP JUMPDEST PUSH1 0x0 DUP2 SWAP1 POP SWAP2 SWAP1 POP JUMP JUMPDEST PUSH2 0xB9D DUP4 PUSH2 0xB68 JUMP JUMPDEST PUSH2 0xBB1 PUSH2 0xBA9 DUP3 PUSH2 0xB8A JUMP JUMPDEST DUP5 DUP5 SLOAD PUSH2 0xB0C JUMP JUMPDEST DUP3 SSTORE POP POP POP POP JUMP JUMPDEST PUSH1 0x0 SWAP1 JUMP JUMPDEST PUSH2 0xBC6 PUSH2 0xBB9 JUMP JUMPDEST PUSH2 0xBD1 DUP2 DUP5 DUP5 PUSH2 0xB94 JUMP JUMPDEST POP POP POP JUMP JUMPDEST JUMPDEST DUP2 DUP2 LT ISZERO PUSH2 0xBF5 JUMPI PUSH2 0xBEA PUSH1 0x0 DUP3 PUSH2 0xBBE JUMP JUMPDEST PUSH1 0x1 DUP2 ADD SWAP1 POP PUSH2 0xBD7 JUMP JUMPDEST POP POP JUMP JUMPDEST PUSH1 0x1F DUP3 GT ISZERO PUSH2 0xC3A JUMPI PUSH2 0xC0B DUP2 PUSH2 0xADA JUMP JUMPDEST PUSH2 0xC14 DUP5 PUSH2 0xAEF JUMP JUMPDEST DUP2 ADD PUSH1 0x20 DUP6 LT ISZERO PUSH2 0xC23 JUMPI DUP2 SWAP1 POP JUMPDEST PUSH2 0xC37 PUSH2 0xC2F DUP6 PUSH2 0xAEF JUMP JUMPDEST DUP4 ADD DUP3 PUSH2 0xBD6 JUMP JUMPDEST POP POP JUMPDEST POP POP POP JUMP JUMPDEST PUSH1 0x0 DUP3 DUP3 SHR SWAP1 POP SWAP3 SWAP2 POP POP JUMP JUMPDEST PUSH1 0x0 PUSH2 0xC5D PUSH1 0x0 NOT DUP5 PUSH1 0x8 MUL PUSH2 0xC3F JUMP JUMPDEST NOT DUP1 DUP4 AND SWAP2 POP POP SWAP3 SWAP2 POP POP JUMP JUMPDEST PUSH1 0x0 PUSH2 0xC76 DUP4 DUP4 PUSH2 0xC4C JUMP JUMPDEST SWAP2 POP DUP3 PUSH1 0x2 MUL DUP3 OR SWAP1 POP SWAP3 SWAP2 POP POP JUMP JUMPDEST PUSH2 0xC8F DUP3 PUSH2 0x82B JUMP JUMPDEST PUSH8 0xFFFFFFFFFFFFFFFF DUP2 GT ISZERO PUSH2 0xCA8 JUMPI PUSH2 0xCA7 PUSH2 0x669 JUMP JUMPDEST JUMPDEST PUSH2 0xCB2 DUP3 SLOAD PUSH2 0xAA9 JUMP JUMPDEST PUSH2 0xCBD DUP3 DUP3 DUP6 PUSH2 0xBF9 JUMP JUMPDEST PUSH1 0x0 PUSH1 0x20 SWAP1 POP PUSH1 0x1F DUP4 GT PUSH1 0x1 DUP2 EQ PUSH2 0xCF0 JUMPI PUSH1 0x0 DUP5 ISZERO PUSH2 0xCDE JUMPI DUP3 DUP8 ADD MLOAD SWAP1 POP JUMPDEST PUSH2 0xCE8 DUP6 DUP3 PUSH2 0xC6A JUMP JUMPDEST DUP7 SSTORE POP PUSH2 0xD50 JUMP JUMPDEST PUSH1 0x1F NOT DUP5 AND PUSH2 0xCFE DUP7 PUSH2 0xADA JUMP JUMPDEST PUSH1 0x0 JUMPDEST DUP3 DUP2 LT ISZERO PUSH2 0xD26 JUMPI DUP5 DUP10 ADD MLOAD DUP3 SSTORE PUSH1 0x1 DUP3 ADD SWAP2 POP PUSH1 0x20 DUP6 ADD SWAP5 POP PUSH1 0x20 DUP2 ADD SWAP1 POP PUSH2 0xD01 JUMP JUMPDEST DUP7 DUP4 LT ISZERO PUSH2 0xD43 JUMPI DUP5 DUP10 ADD MLOAD PUSH2 0xD3F PUSH1 0x1F DUP10 AND DUP3 PUSH2 0xC4C JUMP JUMPDEST DUP4 SSTORE POP JUMPDEST PUSH1 0x1 PUSH1 0x2 DUP9 MUL ADD DUP9 SSTORE POP POP POP JUMPDEST POP POP POP POP POP POP JUMP INVALID LOG2 PUSH5 0x6970667358 0x22 SLT KECCAK256 CALLDATACOPY 0xC4 0xB2 DUP1 SLT CODESIZE 0xB7 0xB1 LOG4 SWAP7 PUSH28 0x37C993D8C1DD39B012428B8F7144D54267B4E7CAFA64736F6C634300 ADDMOD SLT STOP CALLER "
				},
				"gasEstimates": {
					"creation": {
						"codeDepositCost": "694000",
						"executionCost": "728",
						"totalCost": "694728"
					},
					"external": {
						"addTodo(string,bool)": "infinite",
						"deleteTodo(uint256)": "infinite",
						"getTodos()": "infinite",
						"updateTodo(uint256,bool)": "infinite"
					}
				},
				"methodIdentifiers": {
					"addTodo(string,bool)": "a0cc2a56",
					"deleteTodo(uint256)": "6e3c6738",
					"getTodos()": "c33926cb",
					"updateTodo(uint256,bool)": "1f22e5f9"
				}
			},
			"storageLayout": {
				"storage": [
					{
						"astId": 24,
						"contract": "src/contracts/TodoList.sol:TodoList",
						"label": "todos",
						"offset": 0,
						"slot": "0",
						"type": "t_array(t_struct(Todo)10_storage)dyn_storage"
					}
				],
				"types": {
					"t_array(t_struct(Todo)10_storage)dyn_storage": {
						"base": "t_struct(Todo)10_storage",
						"encoding": "dynamic_array",
						"label": "struct Todo[]",
						"numberOfBytes": "32"
					},
					"t_bool": {
						"encoding": "inplace",
						"label": "bool",
						"numberOfBytes": "1"
					},
					"t_string_storage": {
						"encoding": "bytes",
						"label": "string",
						"numberOfBytes": "32"
					},
					"t_struct(Todo)10_storage": {
						"encoding": "inplace",
						"label": "struct Todo",
						"members": [
							{
								"astId": 3,
								"contract": "src/contracts/TodoList.sol:TodoList",
								"label": "id",
								"offset": 0,
								"slot": "0",
								"type": "t_uint256"
							},
							{
								"astId": 5,
								"contract": "src/contracts/TodoList.sol:TodoList",
								"label": "text",
								"offset": 0,
								"slot": "1",
								"type": "t_string_storage"
							},
							{
								"astId": 7,
								"contract": "src/contracts/TodoList.sol:TodoList",
								"label": "done",
								"offset": 0,
								"slot": "2",
								"type": "t_bool"
							},
							{
								"astId": 9,
								"contract": "src/contracts/TodoList.sol:TodoList",
								"label": "deleted",
								"offset": 1,
								"slot": "2",
								"type": "t_bool"
							}
						],
						"numberOfBytes": "96"
					},
					"t_uint256": {
						"encoding": "inplace",
						"label": "uint256",
						"numberOfBytes": "32"
					}
				}
			},
			"userdoc": {
				"kind": "user",
				"methods": {},
				"version": 1
			}
		}
	}
}